:100000000C94E41A0C94151B0C94151B0C94151BE2
:100010000C94151B0C94151B0C94151B0C94151BA0
:100020000C94151B0C94151B0C94151B0C94151B90
:100030000C94151B0C94151B0C94151B0C94151B80
:100040000C94151B0C94CF920C94151B0C94151B3F
:100050000C94151B0C94151B0C943A900C94F1ED18
:100060000C94151B0C944E690C9444690C94151B4C
:100070000C94151B0C94151B0C94151B0C94151B40
:100080000C94C14C0C94151B0C94151B0C94151B53
:100090000C94151B0C94151B0C94151B0C94151B20
:1000A0000C94151B0C94151B0C94934C0C94151B61
:1000B0000C94151B0C94151B0C94151B0C94151B00
:1000C0000C94151B0C94151B0C94151B0C94151BF0
:1000D0000C94151B0C94151B0C94151B0C94151BE0
:1000E0000C94151B084AD73B3BCE016E84BCBFFD68
:1000F000C12F3D6C74319ABD56833DDA3D00C77FF8
:1001000011BED9E4BB4C3E916BAAAABE0000008090
:100110003F05A84CCDB2D44EB93836A9020C50B91F
:10012000918688083CA6AAAA2ABE000000803F004B
:100130000C94C01D0C94F9830C94F4CF0C94901D76
:100140000C94C0CF0C94D07F0C94BB830C94008B88
:100150000C946A820C94D4850C94FE810D942E012B
:100160000C9451B60C94B1CF0C94405B0C94FF836B
:100170000C942F840C942A340C94C9CF0C94DE85F3
:100180000C9424ED0C948A810C9454ED0C941DED88
:100190000C94C6850C94CA820C94AA440C94AF1D8E
:1001A0000C942D8B0C9450ED0C9443390C94478493
:1001B0000C94665B0C9441840C94A55B0C94DD82DA
:1001C0000C948FBD0C948A1D0C940E890C941D8484
:1001D0000C9414980C9495900C94F7880C9421B975
:1001E0000C94A4880C944D840C9405840C94CACF70
:1001F0000C941B980C94AD320C949F880C94428103
:100200000C9440860C940B840C9462370C945384A9
:100210000C94961D0C9495880C949D810C942EED55
:100220000C943B5B0C94E3850C94171B0C945E833D
:100230000C945F2F0C94825B0C948E1D0C94921D79
:100240000C942F810C9417840C94B95B0C943CEDA6
:100250000C945E5B0C9447D10C94FF880C945EB2B6
:100260000C94BC1D0C940D270C9435840C94FEEC5E
:100270000C941A1B0C940F8B0C94E8270C94A63A40
:100280000C94CF850C94941D0C9415270C94C81DC8
:100290000C9429840C941D890C9438ED0C943482B0
:1002A0000C9419820C94C2810C947B200C9434ED34
:1002B0000C9498440C94E3810C94DD200C94831BE3
:1002C0000C9471B40C949C820C949A880C94AF5B3F
:1002D0000C94785B0C944A5B0C9421ED0C94D4B292
:1002E0000C949B5B0C942AED0D943C090C94C41D5A
:1002F0000C9454200C94981D0C94B8270C94545BC7
:100300000C948BBB0C948C5B0C94365B0C944B81E3
:100310000C941E8B0C94B5420C94B7820C944F82B3
:100320000C9428830C9421860C94CD5B0C94D5817D
:100330000C94B9830C94EDB00C9415ED0C9419ED5C
:100340000C9411840C944AED0C9403ED0C940F83DF
:100350000C9423840C94A9810C9483820C94938331
:100360000C94C3830C94F6820C9442ED0C943B8461
:100370000C946E5B0C946BB70C94C35B0C94D98596
:100380000C948C1D0C9402860C9446ED0C940C81FC
:100390000C94821B0C9460834E414E494E49545933
:1003A000494E46CDCCCC3D0AD7233C17B7D1387740
:1003B000CC2B329595E6241FB14F0A000020410056
:1003C00000C84200401C4620BCBE4CCA1B0E5AAEA0
:1003D000C59D7400407A10F35A00A0724E180900AF
:1003E00010A5D4E80000E87648170000E40B54029A
:1003F0000000CA9A3B000000E1F5050000809698D5
:1004000000000040420F000000A086010000001024
:100410002700000000E80300000000640000000066
:10042000000A00000000000100000000002C76D847
:1004300088DC674F0823DFC1DFAE59E1B1B796E52D
:10044000E3E453C63AE651997696E8E6C28426EB91
:10045000898C9B62ED407C6FFCEFBC9C9F40F2BAA4
:10046000A56FA5F490055A2AF75C936B6CF9676D3C
:10047000C11BFCE0E40D47FEF520E6B500D0ED9091
:100480002E0300943577050080841E080000204E5E
:100490000A000000C80C333333330F986E128311F7
:1004A00041EF8D2114893BE65516CFFEE6DB18D1CE
:1004B000844B381BF77C1D901DA4BBE424203284A0
:1004C000725E228100C9F124ECA1E53D27434F4D26
:1004D0004D554E49434154494F4E0044525952558F
:1004E0004E004552524F525300494E464F0045432D
:1004F000484F004572726F722077726974696E6737
:1005000020746F20454550524F4D210A004D343123
:1005100030004D313132004D3130380053544F509E
:100520005045442E20005072696E746572207374B9
:100530006F707065642064756520746F20657272D9
:100540006F72732E20466978207468652065727218
:100550006F7220616E6420757365204D39393920C2
:10056000746F20726573746172742E202854656DE7
:100570007065726174757265206973207265736548
:10058000742E20536574206974206166746572202E
:1005900072657374617274696E67290A004E6F2008
:1005A000436865636B73756D2077697468206C6947
:1005B0006E65206E756D6265722C204C61737420BF
:1005C0004C696E653A20004E6F20436865636B731B
:1005D000756D2077697468206C696E65206E756D25
:1005E0006265722C204C617374204C696E653A20F0
:1005F00000636865636B73756D206D69736D6174FD
:1006000063682C204C617374204C696E653A20003D
:100610004C696E65204E756D626572206973206E3F
:100620006F74204C617374204C696E65204E756D3B
:100630006265722B312C204C617374204C696E659D
:100640003A20004D313130005344207265616420FE
:100650006572726F720A002121204B494C4C206355
:100660006175736564206279204B494C4C2062753A
:1006700074746F6E2F70696E0A002121204B494CF3
:100680004C2063617573656420627920746F6F20FC
:100690006D75636820696E6163746976652074693D
:1006A0006D65202D2063757272656E7420636F6DA9
:1006B0006D616E643A2000627573793A20706175DD
:1006C00073656420666F7220696E7075740A0062CB
:1006D0007573793A2070617573656420666F722056
:1006E000757365720A00627573793A2070726F6370
:1006F000657373696E670A004D65646961205265B0
:100700006D6F766564004D6564696120496E73653F
:100710007274656400506C65617365205265736521
:1007200074005052494E5445522048414C5445445F
:100730000025533A202553004B494C4C45442E206C
:10074000005072696E7465722068616C7465642E05
:10075000206B696C6C28292063616C6C6564210ACC
:100760000053544F505045442E20005072696E740F
:1007700065722073746F7070656420647565207491
:100780006F206572726F72732E20466978207468CC
:1007900065206572726F7220616E642075736520CA
:1007A0004D39393920746F20726573746172742EFB
:1007B000202854656D706572617475726520697367
:1007C0002072657365742E205365742069742061EE
:1007D000667465722072657374617274696E6729DC
:1007E0000A006563686F3A004572726F723A0021C1
:1007F000212053544F502063616C6C656420626506
:100800006361757365206F6620424C546F75636831
:10081000206572726F72202D20726573746172741C
:100820002077697468204D3939390A002121205315
:10083000544F502063616C6C656420626563617520
:100840007365206F6620424C546F75636820657233
:10085000726F72202D2072657374617274207769D3
:100860007468204D3939390A0042696C696E6561D6
:1008700072204C6576656C696E6720477269643AD0
:100880000A004F46460A004661646520486569676C
:1008900068742000426564204C6576656C696E67FB
:1008A00020004661696C656420746F20656E61622A
:1008B0006C6520426564204C6576656C696E670ADC
:1008C00000496E76616C6964206D6573682E0A005C
:1008D00050726F62696E6720506F696E74002553A5
:1008E0002025692F2569002E0A002F0050726F62A3
:1008F000696E67206D65736820706F696E74200083
:10090000202844525952554E29004732392041750A
:10091000746F20426564204C6576656C696E670073
:100920003F20284C2C522C462C4229206F757420D5
:100930006F6620626F756E64732E0A003F28562919
:100940006572626F7365206C6576656C20696D7089
:100950006C61757369626C652028302D34292E0A0C
:1009600000426164205A2076616C75650A004E6F02
:100970002062696C696E65617220677269640A0041
:1009800020496E76616C696420657874727564655F
:10099000722000536C6565702E2E2E005A20507206
:1009A0006F62652050617374204265640A005A20AA
:1009B00050726F626520506173742042656400203C
:1009C0005A3A200020593A200042656420583A20C3
:1009D000004D65736820706F696E74206F757420A8
:1009E0006F662072616E67650A00436C69636B20F5
:1009F000746F20526573756D652E2E2E004E6F201C
:100A00004D6F76652E00456E642066696C65206CBE
:100A10006973740A00426567696E2066696C6520B7
:100A20006C6973740A004E6F206D656469610A0019
:100A3000286E6F2066696C65290043757272656E59
:100A4000742066696C653A20005344207072696EA8
:100A500074696E67206279746520004E6F7420534C
:100A600044207072696E74696E670A002E0A004431
:100A7000656C6574696F6E206661696C65642C20B5
:100A800046696C653A200046696C652064656C6552
:100A90007465643A002569730025696D20256973C2
:100AA000002569682025696D202569730025696422
:100AB000202569682025696D2025697300256979DD
:100AC00020256964202569682025696D20256973C2
:100AD000005072696E742074696D653A20006F6B06
:100AE000006F666600EE04E904E204DB04CD044412
:100AF000454255473A004D31313220536875746490
:100B00006F776E004D31313320530020573A004249
:100B1000656420436F6F6C696E672E2E2E004265F0
:100B2000642048656174696E672E2E2E0033442060
:100B30005072696E746572204F46462E00434841DC
:100B40004D4245525F54454D5045524154555245D2
:100B500000424142595354455050494E470041527A
:100B60004353004D4F54494F4E5F4D4F4445530042
:100B7000544845524D414C5F50524F54454354499F
:100B80004F4E004C4F4E475F46494C454E414D45F8
:100B9000004155544F5245504F52545F53445F5398
:100BA0005441545553005344434152440050524F12
:100BB0004D50545F535550504F525400454D45527F
:100BC00047454E43595F50415253455200434153AC
:100BD000455F4C494748545F4252494748544E4547
:100BE000535300544F47474C455F4C494748545373
:100BF00000534F4654574152455F504F574552009E
:100C00004255494C445F50455243454E54004C4573
:100C100056454C494E475F44415441005A5F50523B
:100C20004F42450052554E4F5554004155544F4C7C
:100C30004556454C005052494E545F4A4F42005071
:100C4000524F4752455353004155544F5245504F10
:100C500052545F54454D5000564F4C554D455452DB
:100C6000494300454550524F4D0042494E4152596B
:100C70005F46494C455F5452414E534645520053DE
:100C8000455249414C5F584F4E5F584F46460046CB
:100C900049524D574152455F4E414D453A4D617263
:100CA0006C696E20322E302E372E325F53524B5FDE
:100CB0003320284A756C20323820323032322032CC
:100CC000313A35323A32392920534F555243455F34
:100CD000434F44455F55524C3A68747470733A2FD1
:100CE0002F6769746875622E636F6D2F4D61726C2A
:100CF000696E4669726D776172652F4D61726C69BC
:100D00006E2050524F544F434F4C5F5645525349FB
:100D10004F4E3A312E30204D414348494E455F54A5
:100D20005950453A3344205072696E7465722045BB
:100D3000585452554445525F434F554E543A312012
:100D4000555549443A63656465326132662D3431E4
:100D500061322D343734382D396231322D633535D7
:100D60006336326633363766660A002F2F20004D11
:100D700031343520533C696E6465783E206F75745C
:100D8000206F662072616E67652028302D31290A38
:100D900000205200416363656C65726174696F6E17
:100DA0003A2050003F4A206F7574206F66207261B0
:100DB0006E67652028302E303120746F20302E333E
:100DC000290A0020580020204D61783A2000200098
:100DD00020204D696E3A2000536F667420656E6462
:100DE00073746F70733A200046523A0020466C6F5D
:100DF000773A20003A200020536572766F20002059
:100E00006F7574206F662072616E67650A005365A6
:100E100072766F200020643A0020693A0020703A10
:100E200000496E76616C69642065787472756465DA
:100E3000720A0064697300656E0043290A006162EA
:100E40006C656420286D696E2074656D70200043A8
:100E50006F6C642065787472756465732061726567
:100E600020004D34323120696E636F727265637495
:100E700020706172616D657465722075736167655C
:100E80000A004D65736820706F696E74206F757409
:100E9000206F662072616E67650A004F6666736533
:100EA0007473204170706C696564004572723A20F9
:100EB000546F6F206661722100546F6F20666172FB
:100EC0002066726F6D207265666572656E6365205F
:100ED000706F696E740A00454550524F4D204F4B5C
:100EE0000A00290A0020746F20003F5A206F757491
:100EF000206F662072616E6765202800290A002035
:100F0000746F20003F59206F7574206F66207261E6
:100F10006E676520282D00290A0020746F20003F8D
:100F200058206F7574206F662072616E6765202887
:100F30002D0050726F6265204F666673657420588D
:100F4000004D383400446F6E65207072696E7469AC
:100F50006E672066696C650A004D3737004D333186
:100F600000496E76616C6964206578747275646599
:100F7000720A00220A00656E7175657565696E6793
:100F80002022006F6B00526573656E643A20004347
:100F900061703A0047322F473320626164207061EC
:100FA00072616D65746572730A0020573A00436F71
:100FB0006F6C696E672E2E2E0048656174696E67CE
:100FC0002E2E2E0045202553004F4646004F4E0042
:100FD00023646566696E652044454641554C545FFF
:100FE000004B6420004B6920004B702000504944A6
:100FF000204175746F74756E652066696E697368DB
:101000006564212050757420746865206C61737468
:10101000204B702C204B6920616E64204B64206350
:101020006F6E7374616E74732066726F6D2062658B
:101030006C6F7720696E746F20436F6E6669677599
:10104000726174696F6E2E680A00504944204175C0
:10105000746F74756E65206661696C6564212074B7
:10106000696D656F75740A00504944204175746F4D
:1010700074756E65206661696C6564212054656DC8
:10108000706572617475726520746F6F206869672E
:10109000680A00204B643A2000204B693A20002067
:1010A0004B703A20000A20436C61737369632050CF
:1010B0004944200A002054753A2000204B753A20FC
:1010C00000206D61783A2000206D696E3A20002082
:1010D000643A200020626961733A2000504944203C
:1010E0004175746F74756E652073746172740A0053
:1010F000504944204175746F74756E65206661694E
:101100006C6564212054656D7065726174757265DB
:1011100020746F6F20686967680A00504944204155
:1011200075746F74756E6500504944204175746F15
:1011300074756E65206661696C6564212042616426
:10114000206578747275646572206E756D62657263
:101150000A00504944204465627567200045727258
:101160003A207574663820666F6E74206E6F742036
:10117000696E697469616C697A65642E0045727282
:101180003A207574663820666F6E74206E6F742016
:10119000696E697469616C697A65642E0045727262
:1011A0003A207574663820666F6E74206E6F7420F6
:1011B000696E697469616C697A65642E0025687569
:1011C0003A25303268750025303268753A2530325C
:1011D000687500256875642025303268753A2530B9
:1011E0003268750042656400456E636C6F7375729A
:1011F0006500202020202020200020202020001F0B
:10120000E02010201020101020102020102010307E
:10121000300840048003001FE03FF03FF03FF01F24
:10122000E01FE03FF03FF03FF00FC0078003003FBA
:10123000FFF038007030FC3020FC10207810203097
:10124000102C00D02E31D02F7BD02F7BD02E31D040
:101250002C00D020301020781020FC1030FC3038CA
:1012600000703FFFF03FFFF0380070318630238779
:10127000102787902F87D02F03D020301020781090
:101280002078102030102F03D02F87D0278790236D
:1012900087103186303800703FFFF01FFFF81FFFC6
:1012A000F8041040020820020820041040082080A2
:1012B0001041001041000820800410400000001F71
:1012C000FFF81FFFF85072696E742041626F7274EC
:1012D0006564004D32350050617573696E672E2E5E
:1012E0002E00454550524F4D2056657273696F6E02
:1012F000204572726F7200454550524F4D20496E25
:10130000646578204572726F7200454550524F4DAA
:1013100020435243204572726F72003F0049676E4E
:101320006F726500526573657400496E6974696116
:101330006C697A6520454550524F4D0046696C2EC8
:10134000204469612E004520696E206D6DC2B30096
:1013500020082046616374002008204D6178002039
:1013600008204D696E004F6666004F6E004175742F
:101370006F74656D70005654726176204D696E0011
:10138000566D696E00566D6178204500566D617826
:10139000205A00566D6178205900566D61782058AA
:1013A00000416D6178204500416D6178205A00410F
:1013B0006D6178205900416D6178205800412D54AD
:1013C000726176656C00412D5265747261637400C0
:1013D000416363656C0050726F6265205A204F66EE
:1013E000667365740050726F62652059204F66669F
:1013F0007365740050726F62652058204F66667383
:10140000657400000C0F00FE07022503BB017FFE80
:1014100008FE08FE05080806000040F0C888889805
:101420007810050808060000C0F88888888888F8C1
:101430000505050600012030F830200508080600E3
:10144000002070F820202020E00509090600FF2078
:1014500070A8A8B888887020070505070001D86C17
:10146000366CD80509090600FFF8A888888888889E
:10147000A8F8050A0A0600FE205050505088A8A877
:10148000887003030306000340A040FFFFFFFFFF37
:10149000FFFFFFFFFFFFFFFFFFFFFFFFFFFFFFFF5C
:1014A000FF0000000605FF0107070602008080809C
:1014B00080800080030303060105A0A0A0050606A6
:1014C00006000050F85050F8500509090600FF20AA
:1014D00070A8A07028A87020050707060000C8C8DB
:1014E000102040989805070706000040A0A040A8DB
:1014F0009068010303060205808080030909060144
:10150000FF2040408080804040200309090601FF01
:101510008040402020204040800507070600002032
:10152000A8702070A8200505050600012020F820DD
:10153000200203030601FFC04080050101060003ED
:10154000F8020202060100C0C005070706000008F5
:10155000101020404080050707060000708898A8FA
:10156000C8887003070706010040C040404040E0C3
:10157000050707060000708808102040F8050707D7
:10158000060000F8081030088870050707060000FC
:1015900010305090F81010050707060000F880F092
:1015A00008088870050707060000304080F088882A
:1015B00070050707060000F8081010202020050716
:1015C0000706000070888870888870050707060085
:1015D0000070888878081060020505060100C0C008
:1015E00000C0C00206060601FFC0C000C040800364
:1015F0000505060101204080402005030306000286
:10160000F800F80305050601018040204080050729
:10161000070600007088102020002005070706003C
:10162000007088B8A8B880700507070600007088A9
:1016300088F8888888050707060000F04848704841
:1016400048F00507070600007088808080887005D4
:101650000707060000F04848484848F00507070615
:101660000000F88080F08080F8050707060000F889
:101670008080F080808005070706000070888080E9
:10168000988870050707060000888888F888888889
:10169000030707060100E04040404040E00507071F
:1016A00006000038101010109060050707060000B3
:1016B0008890A0C0A0908805070706000080808061
:1016C000808080F805070706000088D8A8888888E9
:1016D000880507070600008888C8A8988888050735
:1016E000070600007088888888887005070706004C
:1016F00000F08888F0808080050707060000708869
:101700008888A89068050707060000F08888F0A080
:1017100090880507070600007088807008887005AB
:101720000707060000F820202020202005070706D4
:101730000000888888888888700507070600008868
:101740008888885050200507070600008888888808
:10175000A8A85005070706000088885020508888F0
:10176000050707060000888850202020200507076D
:10177000060000F80810204080F80309090601FF60
:10178000E080808080808080E00507070600008080
:101790004040201010080309090601FFE020202026
:1017A00020202020E00503030600052050880501C5
:1017B000010600FEF803030306010580402005052D
:1017C0000506000070087888780507070600008085
:1017D00080F0888888F00505050600007080808804
:1017E00070050707060000080878888888780505CE
:1017F000050600007088F0807005070706000030BD
:101800004840E04040400507070600FE7088888891
:101810007808700507070600008080F088888888AF
:101820000307070601004000C0404040E0040909EA
:101830000601FE100030101010109060050707061A
:10184000000080808890E09088030707060100C0B0
:101850004040404040E0050505060000D0A8A8A88B
:10186000A8050505060000B0C88888880505050696
:10187000000070888888700507070600FEF08888D9
:1018800088F080800507070600FE78888888780839
:1018900008050505060000B0C8808080050505061E
:1018A000000078807008F00507070600002020F887
:1018B00020202018050505060000888888986805FE
:1018C00005050600008888885020050505060000EB
:1018D0008888A8A850050505060000885020508873
:1018E0000507070600FE888888502040800505050A
:1018F000060000F8102040F80309090601FF204007
:10190000404080404040200109090602FF8080805D
:101910008080808080800309090601FF804040406C
:10192000204040408005030306000248A890FF4184
:10193000425300504C4100452073746570732F6D05
:101940006D005A2053746570732F6D6D00592053CC
:10195000746570732F6D6D00582053746570732F0C
:101960006D6D00416476616E6365642053657474C7
:10197000696E6773003F0043616E63656C00496E7A
:101980006974004D34323800496E697469616C695C
:101990007A6520454550524F4D0046696C616D6532
:1019A0006E740054656D7065726174757265005374
:1019B000746570732F6D6D0050726F6265204F6695
:1019C0006673657473004A756E6374696F6E204444
:1019D000657600416363656C65726174696F6E0062
:1019E00056656C6F636974790053657420486F6D38
:1019F00065204F66667365747300436F6E66696732
:101A000075726174696F6E0053746F770053572D50
:101A10004D6F6465004465706C6F790053656C664A
:101A20002D546573740052657365740042656400DB
:101A30004E6F7A7A6C650046616E205370656564FE
:101A400000436F6E66696775726174696F6E0052EC
:101A50006573746F72652044656661756C7473009C
:101A60004C6F61642053657474696E6773005374BE
:101A70006F72652053657474696E67730050726588
:101A800068656174202420436F6E6600424C546F79
:101A90007563680050726F6265205A204F666673E6
:101AA000657400416476616E636564205365747487
:101AB000696E6773004D61696E003F004261636B40
:101AC0000053746F70005072696E742066726F6D8F
:101AD000204D65646961004368616E6765204D65EE
:101AE000646961004D323100436F6E6669677572DB
:101AF0006174696F6E0054656D70657261747572A2
:101B000065004D6F74696F6E00526573756D652069
:101B10005072696E74004E6F204D656469610054A7
:101B2000756E650053746F70205072696E7400504A
:101B300061757365205072696E7400496E666F201E
:101B400053637265656E003F005374617274205078
:101B500072696E740043616E63656C005072696EE9
:101B6000740043616E6E6F7420656E7465722073CD
:101B700075626469723A2000022E2E004D61696E12
:101B8000002100486F74656E6420746F6F20636F6E
:101B90006C64004261636B0050726F636565640042
:101BA000536F667420456E6473746F7073004D6F6D
:101BB00074696F6E0044697361626C65205374656B
:101BC0007070657273004D3834004661646520485A
:101BD0006569676874004F6666004F6E0042656411
:101BE000204C6576656C696E67004C6576656C2087
:101BF000426564004732380A473239004175746FD4
:101C000020486F6D6500473238004D61696E0050A5
:101C1000726568656174202420456E6400507265A9
:101C2000686561742024204265640054656D7065A8
:101C30007261747572650033192F19436F6F6C648C
:101C40006F776E005072656865617420240046618C
:101C50006E20537065656400426564004E6F7A7A49
:101C60006C65004D61696E00466C6F770046616E71
:101C700020537065656400426564004E6F7A7A6C2B
:101C800065005370656564004D61696E006F706535
:101C90006E00545249474745524544003A20007A65
:101CA0005F6D696E00795F6D696E00785F6D696E5A
:101CB000005265706F7274696E6720656E6473742C
:101CC0006F70207374617475730A0020746F6F20D5
:101CD0006C6F6E6720657874727573696F6E2070B3
:101CE000726576656E7465640A0020636F6C6420AB
:101CF000657874727573696F6E2070726576656E43
:101D00007465640A00486F6D65202573257325731B
:101D100020466972737400486F6D696E6720466172
:101D2000696C656400000000000000000000000015
:101D300000000048420000484200008040576172A5
:101D40006E696E673A20486F6D696E672042756DE7
:101D5000702044697669736F72203C20310A00025A
:101D600002040000A0400000A0400000004000006D
:101D70004843000048430000C842FFFFFF000048FE
:101D800043000048430000C842000000000000007B
:101D9000000000000053657474696E67732053740B
:101DA0006F72656400290A002062797465733B20B4
:101DB000637263200053657474696E677320537493
:101DC0006F726564202800454550524F4D20646174
:101DD000746173697A65206572726F722E0A0029C8
:101DE0000A002062797465733B20637263200020CF
:101DF00073746F7265642073657474696E677320A1
:101E000072657472696576656420280020286361B4
:101E10006C63756C6174656429210A0020213D2082
:101E200000454550524F4D20435243206D69736D1C
:101E300061746368202D202873746F726564292093
:101E4000002053697A653A2000496E6465783A202B
:101E50000044494749504F5453204C6F61646564B6
:101E60000A0044494749504F5453204C6F616469FC
:101E70006E670A00204D61726C696E3D56383229DA
:101E80000A00454550524F4D2076657273696F6E5A
:101E9000206D69736D617463682028454550524F09
:101EA0004D3D0048617264636F64656420446566FB
:101EB00061756C742053657474696E6773204C6F20
:101EC000616465640A000000FA440000FA440000FE
:101ED000A0400000C8410000A0420000A042000055
:101EE000C8430000C842B80B0000B80B00006400F3
:101EF0000000102700003B20003A0A0020204D3847
:101F000035312058005A2D50726F6265204F666639
:101F10007365740020440020490020204D33303187
:101F20002050005049442073657474696E67733A99
:101F30000020460020420020480020204D3134354A
:101F40002053004D6174657269616C20686561742D
:101F5000757020706172616D65746572733A0020EE
:101F60004A002020473239205720490020204D3494
:101F700032302053004175746F20426564204C65F7
:101F800076656C696E673A0020204D3230362058F5
:101F900000486F6D65206F66667365743A00204A6D
:101FA0000020530020204D3230352042004164761D
:101FB000616E6365643A20423C6D696E5F7365676C
:101FC0006D656E745F74696D655F75733E20533C1B
:101FD0006D696E5F66656564726174653E20543C30
:101FE0006D696E5F74726176656C5F66656564725B
:101FF0006174653E204A3C6A756E635F6465763E37
:102000000020540020520020204D32303420500057
:10201000416363656C65726174696F6E2028756ECB
:102020006974732F7332293A20503C7072696E7450
:102030005F616363656C3E20523C726574726163DC
:10204000745F616363656C3E20543C7472617665B5
:102050006C5F616363656C3E0020204D323031203F
:1020600058004D6178696D756D20416363656C65DD
:10207000726174696F6E2028756E6974732F733284
:10208000293A0020204D3230332058004D617869C4
:102090006D756D2066656564726174657320287561
:1020A0006E6974732F73293A0053746570732070CE
:1020B000657220756E69743A0020440020204D320C
:1020C00030302053002044697361626C65640A00FB
:1020D00046696C616D656E742073657474696E67B2
:1020E000733A0020204D3134392043203B20556E77
:1020F00069747320696E2043656C736975730A0097
:1021000020286D6D29002020473231202020203BDF
:1021100020556E69747320696E206D6D0024F4D4AF
:102120003050C38E20C2A24017828B7011127A9158
:102130000D816CD90AA861E108C75866076151434F
:10214000061E4B5D05C145A7041A411104093D98BF
:1021500003713931034036DB0265339102D43054C8
:1021600002802E1D02632CEE01752AC501B028A045
:1021700001102781018F2564012B244B01E02234BB
:1021800001AC211F018D200D01801FFC00841EED7C
:1021900000971DDF00B81CD200E61BC600201BBC48
:1021A00000641AB200B219A8000A19A0006A1899AE
:1021B00000D117910040178B00B516840031167EB0
:1021C00000B31579003A157300C7146F0058146AEC
:1021D00000EE1366008813630025135E00C7125BD0
:1021E000006C12570015125400C111510070114FAC
:1021F0000021114B00D61049008D104700461044B5
:102200000002104200C00F4000800F3E00420F3C11
:1022100000060F3B00CB0E3800930E37005C0E35E6
:1022200000270E3400F30D3200C10D3100900D3047
:1022300000600D2E00320D2D00050D2C00D90C2B49
:1022400000AE0C2900850C29005C0C2700350C27FA
:10225000000E0C2600E80B2400C40B2400A00B2366
:10226000007D0B23005A0B2100390B2100180B2095
:1022700000F80A1F00D90A1E00BB0A1E009D0A1D95
:1022800000800A1D00630A1C00470A1B002C0A1B61
:1022900000110A1A00F7091A00DD091900C409190A
:1022A00000AB091900920917007B09180063091790
:1022B000004C09160036091600200916000A0915F7
:1022C00000F5081500E0081400CC081400B8081444
:1022D00000A4081400900813007D0812006B081376
:1022E0000058081200460812003408110023081193
:1022F000001208110001081100F0071000E007109B
:1023000000D0071000C0071000B0070F00A1071091
:102310000091070E0083070F0074070F0065070E7A
:102320000057070E0049070E003B070D002E070E51
:102330000020070D0013070D0006070D00F9060C1D
:1023400000ED060D00E0060C00D4060C00C8060CDB
:1023500000BC060C00B0060C00A4060B0099060C8D
:10236000008D060B0082060B0077060B006C060B37
:102370000061060A0057060B004C060A0042060AD6
:102380000038060A002E060A0024060A001A060A69
:10239000001006090007060A00FD050900F40509FA
:1023A00000EB050900E2050900D9050900D005097F
:1023B00000C7050900BE050900B5050800AD050800
:1023C00000A50509009C050800940508008C050877
:1023D00000840508007C050800740508006C0507EA
:1023E00000650508005D050700560508004E050755
:1023F00000470507004005080038050700310507BC
:10240000002A050700230507001C0506001605071E
:10241000000F0507000805060002050700FB04067B
:1024200000F5040700EE040600E8040600E20407D5
:1024300000DB040600D5040600CF040600C904062C
:1024400000C3040600BD040600B7040600B104057D
:1024500000AC040600A6040600A00405009B0406C8
:102460000095040500900406008A04050085040513
:1024700000800406007A0405007504050070040558
:10248000006B04050066040500610405005C04059A
:102490000057040500520405004D040500480405DA
:1024A00000430405003E0404003A04050035040519
:1024B00000300404002C0405002704040023040554
:1024C000001E0404001A040400160405001104048C
:1024D000000D0404000904050004040400000404C1
:1024E00000FC030400F8030400F4030400F00304F8
:1024F00000EC030400E8030400E4030400E0030428
:1025000000DC030400D8030400D4030400D0030457
:1025100000CC030400C8030300C503030024F40433
:10252000D9201BC40C5C0E9804C4095F02650771B6
:1025300001F405F900FB04B30048048700C10369F6
:10254000005803550003034500BE023A00840231DF
:102550000053022A002902250004022000E4011C85
:1025600000C8011900AF011700980114008401137D
:1025700000710110006101100051010E0043010DB6
:102580000036010B002B010B0020010B0015010987
:10259000000C01090003010800FB000800F300081B
:1025A00000EB000700E4000600DE000600D800068D
:1025B00000D2000600CC000500C7000500C20005DF
:1025C00000BD000400B9000400B5000400B100041F
:1025D00000AD000400A9000400A5000300A2000350
:1025E000009F0004009B0003009800030095000278
:1025F0000093000300900003008D0002008B000395
:1026000000880002008600020084000300810002AE
:10261000007F0002007D0002007B000200790002C2
:1026200000770001007600020074000200720001D1
:1026300000710002006F0002006D0001006C0002DA
:10264000006A0001006900020067000100660001E5
:1026500000650001006400020062000100610001E9
:1026600000600001005F0002005D0001005C0001ED
:10267000005B0001005A00010059000100580001F0
:1026800000570001005600010055000100540001F0
:1026900000530000005300010052000100510001EE
:1026A00000500001004F0001004E0000004E0001EC
:1026B000004D0001004C0001004B0000004B0001E8
:1026C000004A0001004900010048000000480001E4
:1026D00000470001004600000046000100450000E0
:1026E00000450001004400010043000000430001D8
:1026F00000420000004200010041000000410001D2
:1027000000400001003F0000003F0001003E0000CB
:10271000003E0001003D0000003D0001003C0000C3
:10272000003C0000003C0001003B0000003B0001B9
:10273000003A0000003A00010039000000390001B1
:1027400000380000003800000038000100370000A9
:10275000003700010036000000360000003600019E
:102760000035000000350000003500010034000095
:10277000003400000034000100330000003300008A
:10278000003300010032000000320000003200017E
:102790000031000000310000003100010030000075
:1027A0000030000000300001002F0000002F00006A
:1027B000002F0000002F0001002E0000002E00005E
:1027C000002E0001002D0000002D0000002D000053
:1027D000002D0001002C0000002C0000002C000047
:1027E000002C0001002B0000002B0000002B00003B
:1027F000002B0001002A0000002A0000002A00002F
:10280000002A000100290000002900000029000022
:102810000029000000290001002800000028000015
:102820000028000000280000002800010027000008
:1028300000270000002700000027000000270001FB
:1028400000260000002600000026000000260000F0
:1028500000260001002500000025000000250000E2
:1028600000250000002500000025000100240000D4
:1028700000240000002400000024000000240001C7
:1028800000230000002300000023000000230000BC
:1028900000230000002300000023000100220000AC
:1028A00000220000002200000022000000220000A0
:1028B0000022000100210000002100000021000092
:1028C0000021000000210000002100000021000183
:1028D0000020000000200000002000000020000078
:1028E0000020000000200000002000000020000167
:1028F000001F0000001F0000001F0000001F00005C
:10290000001F0000001F0000001F0001001E00004B
:10291000001E0000001E0000001E00000004370022
:10292000001E290000511B00005810000010090073
:1029300000CC040000780200004101000020436F39
:10294000756E7420583A000042656400453100629B
:102950006564002C2073797374656D2073746F70D7
:1029600070656421204865617465725F49443A204E
:102970000020645465726D200020695465726D20DA
:102980000020705465726D2000204F75747075744E
:1029900020003A20496E7075742000205049445F31
:1029A0004445425547200048656174696E6720467A
:1029B00061696C65640048656174696E6720666171
:1029C000696C656400544845524D414C2052554E47
:1029D0004157415900546865726D616C2052756EA3
:1029E00061776179004572723A204D415854454DE6
:1029F00050004D415854454D5020747269676765C9
:102A0000726564004572723A204D494E54454D50EE
:102A1000004D494E54454D50207472696767657288
:102A2000656400202F002042403A0020403A000018
:102A300009121B242D363F48415A536C657E771985
:102A4000100B023D342F265158434A757C676E3275
:102A50003B2029161F040D7A7368615E574C452B85
:102A60002239300F061D14636A7178474E555C6435
:102A70006D767F4049525B2C253E3708011A137D45
:102A8000746F6659504B42353C272E1118030A5675
:102A90005F444D727B60691E170C053A3328214F45
:102AA000465D546B627970070E151C232A3138413C
:102AB00048535A656C777E09001B122D243F365807
:102AC000514A437C756E671019020B343D262F73F3
:102AD0007A6168575E454C3B3229201F160D046A07
:102AE0006378714E475C55222B3039060F141D2533
:102AF0002C373E0108131A6D647F7649405B523CC7
:102B0000352E2718110A03747D666F5059424B17F2
:102B10001E050C333A21285F564D447B7269600EC6
:102B2000071C152A233831464F545D626B70797C3F
:102B30003C3E5E2B3D3F2F5B5D3B2C2A225C0050D0
:102B400072696E74205061757365640043616E6EC6
:102B50006F74206F70656E207375626469722000F7
:102B6000534420496E6974204661696C00534420C7
:102B700063617264206F6B0A006F70656E526F6FD5
:102B800074206661696C65640A00766F6C756D65AA
:102B90002E696E6974206661696C65640A004E6F07
:102BA00020534420636172640A004D3234004D3278
:102BB00033202573002E0A006F70656E20666169F0
:102BC0006C65642C2046696C653A200046696C652A
:102BD0002073656C65637465640A002053697A65C7
:102BE0003A200046696C65206F70656E65643A2016
:102BF00000454E4420535542524F5554494E450AC4
:102C0000002220706F73002220706172656E743A2A
:102C10002200535542524F5554494E452043414C92
:102C20004C207461726765743A2200537562636167
:102C30006C6C204F766572666C6F770045786365C3
:102C400065646564206D617820535542524F555438
:102C5000494E452064657074683A310A00577269BC
:102C600074696E6720746F2066696C653A2000662F
:102C70007265736800646F696E67002066696C65D1
:102C80003A20004E6F77200068747470733A2F2FCB
:102C90006D61726C696E66772E6F726700322E30CE
:102CA0002E372E325F53524B5F330001FFFFFFFF81
:102CB000FFFFFFFFFFFFFFFFFF0FFFFFFFFFFFFF14
:102CC000FFFFFFFFFFFFFF1E0000000000000000ED
:102CD000000007FFFF3800000000000000000000B7
:102CE00003FFFF700000000000000000000001FF73
:102CF000FF600000000000000000000000FFFF6017
:102D000000000000000000000000007FFFC0000085
:102D10000000000000007800003FFFC00FC0FC0072
:102D2000000000007818001FFFC03FE1FF00000016
:102D30000000783C000FFFC07FF3FF800000000020
:102D4000783C0007FFC0FFFFFFC000000000783C98
:102D50000003FFC1F87F87E0000000007800000159
:102D6000FFC1F03F03E00000000078000000FFC159
:102D7000E01E01E01F0003E0783C03F07FC1E01E8D
:102D800001E07FC00FF8783C07FC3FC1E01E01E185
:102D9000FFE01FFC783C0FFE1FC1E01E01E3FFF0C7
:102DA0003FFE783C1FFE0FC1E01E01E3F3F83F3EFB
:102DB000783C3F3F07C1E01E01E7E0FC7C1F783C08
:102DC0003E1F07C1E01E01E7C07C7C0F783C3C0F32
:102DD00003C1E01E01E7807C780F783C3C0F03C103
:102DE000E01E01E7803C7800783C3C0F03C1E01E08
:102DF00001E7803C7800783C3C0F03C1E01E01E70E
:102E0000803C7800783C3C0F03C1E01E01E7C03CE9
:102E10007800783C3C0F03C1E01E01E3E03C780001
:102E20007C3C3C0F03C1E01E01E3FF3FF8007FBC88
:102E30003C0F03C1E01E01E1FF3FF8003FBFFC0F64
:102E400003C1E01E01E0FF3FF8001FBFFC0F03C1FC
:102E5000E01E01E07F3FF8000FBFFC0F03600000A1
:102E600000000000000000000000076000000000FB
:102E700000000000000000000670000000000000DC
:102E80000000000000000E380000000000000000FC
:102E9000000000001C1E00000000000000000000F8
:102EA0000000780FFFFFFFFFFFFFFFFFFFFFFFFFA7
:102EB000F001FFFFFFFFFFFFFFFFFFFFFFFF80703D
:102EC000012C0190012701B0012201C0011D01F078
:102ED0000118011002130130020E01600209019075
:102EE000020401C002FF000003FA004003F5008065
:102EF00003F000D003EB002004E6007004E100E0E2
:102F000004DC004005D700C005D2004006CD00D04B
:102F100006C8008007C3003008BE00F008B900C032
:102F200009B400B00AAF00B00BAA00D00CA5000095
:102F30000EA000500F9B00C0109600501291000090
:102F4000148C00C0158700B0178200B0197D00D026
:102F50001B7800001E730040206E0090226900F074
:102F600024640040275F0090295A00E02B55001090
:102F70002E500020304B0010324600E033410090CC
:102F8000353C001037370070383200A0392D00B0C2
:102F90003A2800A03B2300603C1E00103D19009021
:102FA0003D1400103E0F00703E0A00C03E050000B8
:102FB0003F0000403FFBFF803FF6FFC03FF1FF2096
:102FC00020506C616E6E65724275666665724279FC
:102FD0007465733A20002046726565204D656D6FFB
:102FE00072793A2000436F6D70696C65643A204ACB
:102FF000756C20323820323032320A00204C617336
:103000007420557064617465643A20323032322D18
:1030100030372D3238207C20417574686F723A2029
:103020002853656E7468696C20322C206465666173
:10303000756C7420636F6E666967290A00322E30E2
:103040002E372E325F53524B5F330A004D61726C44
:10305000696E0020536F66747761726520526573E4
:1030600065740A00205761746368646F6720526555
:103070007365740A002042726F776E206F7574203A
:1030800052657365740A002045787465726E616CD0
:103090002052657365740A00506F77657255700A27
:1030A0000073746172740A006175746F25632E6712
:1030B000004732385859004D313030310065727256
:1030C0006F722077726974696E6720746F20666909
:1030D0006C650A00446F6E6520736176696E6720C7
:1030E00066696C652E0A004D323900456E64737452
:1030F0006F707300255320256320256320256320EE
:10310000256300205A3A0020593A0020583A0065B9
:103110006E6473746F7073206869743A20000000E5
:103120000A0B02090C0D0E08070304010000000041
:10313000000000000000000000000000000000008F
:10314000000000000000000000001211100000004C
:10315000000000000000000000000000000000006F
:1031600000000000004D6F76652025736D6D004DE9
:103170006F766520302E316D6D004D6F7665203194
:103180006D6D004D6F76652031306D6D004D6F7641
:1031900065204178697300457874727564657200C2
:1031A0004D6F7665205A004D6F76652059004D6F42
:1031B00076652058005072696E742066726F6D20BB
:1031C0004D656469610050726F62696E6720466187
:1031D000696C65640A0050726F62696E67204661AF
:1031E000696C656400205A3A200020593A20004258
:1031F000656420583A2000220A00556E6B6E6F7786
:103200006E20636F6D6D616E643A2022003344203E
:103210005072696E7465722052656164792E005037
:1032200072696E74696E672E2E2E00204500205A3A
:1032300000205900204D393220580020453A002006
:103240005A3A0020593A00583A00DB0FC93F45BCB2
:10325000DA3F8FB30240FCF0274056946140FE4BAA
:103260009B4084A5D840E0231841346A5641E85970
:10327000974164DBD5416E271742B4B75542CE1A49
:103280009742C8AED542B5885A43D40684BFA65FDC
:10329000A7BF7443E0BF10B11AC01C2C58C0E8F699
:1032A00097C0B849D6C04E4E17C124D355C180240B
:1032B00097C1A0B5D5C1121A17C244AE55C278172E
:1032C00097C26CACD5C267885AC320746F6F206CEC
:1032D0006F6E6720657874727573696F6E20707297
:1032E0006576656E7465640A0020636F6C642065A2
:1032F0007874727573696F6E2070726576656E741E
:1033000065640A0000002110422063308440A5500B
:10331000C660E770088129914AA16BB18CC1ADD11B
:10332000CEE1EFF13112100273325222B5529442C3
:10333000F772D662399318837BB35AA3BDD39CC36B
:10334000FFF3DEE36224433420040114E664C7740F
:10335000A44485546AA54BB528850995EEE5CFF5BB
:10336000ACC58DD55336722611163006D776F66663
:103370009556B4465BB77AA719973887DFF7FEE70B
:103380009DD7BCC7C448E5588668A778400861182F
:1033900002282338CCC9EDD98EE9AFF9488969995B
:1033A0000AA92BB9F55AD44AB77A966A711A500A03
:1033B000333A122AFDDBDCCBBFFB9EEB799B588BAB
:1033C0003BBB1AABA66C877CE44CC55C222C033C4F
:1033D000600C411CAEED8FFDECCDCDDD2AAD0BBDFB
:1033E000688D499D977EB66ED55EF44E133E322EA3
:1033F000511E700E9FFFBEEFDDDFFCCF1BBF3AAF4B
:10340000599F788F8891A981CAB1EBA10CD12DC1A8
:103410004EF16FE18010A100C230E320045025403E
:1034200046706760B9839893FBA3DAB33DC31CD39E
:103430007FE35EF3B1029012F322D232354214528E
:1034400077625672EAB5CBA5A89589856EF54FE5EA
:103450002CD50DC5E234C324A014810466744764DE
:1034600024540544DBA7FAB79987B8975FE77EF73E
:103470001DC73CD7D326F2369106B016576676762E
:10348000154634564CD96DC90EF92FE9C899E9890A
:103490008AB9ABA94458654806782768C018E1087E
:1034A0008238A3287DCB5CDB3FEB1EFBF98BD89BDE
:1034B000BBAB9ABB754A545A376A167AF10AD01ACE
:1034C000B32A923A2EFD0FED6CDD4DCDAABD8BAD2A
:1034D000E89DC98D267C076C645C454CA23C832C1E
:1034E000E01CC10C1FEF3EFF5DCF7CDF9BAFBABF7E
:1034F000D98FF89F176E367E554E745E932EB23E6E
:10350000D10EF01E00002200250028002B002E0006
:103510003100340002010000050108010B01000028
:103520002100240027002A002D0030003300010173
:103530000000040107010A01050505050705080843
:103540000808020202020A0A08080404040401012D
:103550000101010101010303030303030303040742
:1035600007070C0C0C0C0C0C0C0C020202020606D9
:103570000606060606060B0B0B0B0B0B0B0B0102CC
:103580001020200808102040102040800201020175
:10359000080402010102040810204080804020102D
:1035A0000804020180040201804020100804020186
:1035B00008040201010204081020408001020408EE
:1035C00010204080AE00740111241FBECFEFD1E265
:1035D000DEBFCDBF00E00CBF13E0A0E0B2E0E0E151
:1035E000F1E302E00BBF02C007900D92A031B107DA
:1035F000D9F724E1A0E1B3E001C01D92A136B207E2
:10360000E1F71AE1C3EEDAE100E006C02197010913
:10361000802FFE010F94DF17C23ED10780E008071C
:10362000A9F70F945A020D9476180C940000FC012F
:1036300084910895FC0180810895FC01A081B181ED
:103640001C92A281B3818C918F5F8C930280F38155
:10365000E02D90818CE0989F800D1124EAE2F1E149
:1036600013AE84AF089511989091020187FD909553
:10367000917090930001119A0000119890910201AD
:1036800086FD9095917090930001119A0000119819
:103690009091020185FD9095917090930001119A8F
:1036A000000011989091020184FD90959170909383
:1036B0000001119A000011989091020183FD9095EC
:1036C000917090930001119A00001198909102015D
:1036D00082FD9095917090930001119A00001198CD
:1036E0009091020181FD9095917090930001119A43
:1036F0000000119880910201817080930001119A5D
:1037000000000895089590E080E00895CF93DF933E
:10371000DB01F9019C919130C1F0943080F094501C
:103720009C938830D1F480819181009771F001974A
:1037300091838083480F591FEA01188206C08C3597
:1037400039F49C5F9C93943041F4DF91CF910895BC
:103750008B3339F781E08C93F8CF20813181B90127
:103760006F5F7F4F71836083420F531FEA0188832D
:10377000808191818F3591056CF7E7CF9091CB06D1
:10378000E92FF0E0E859FE4E80839F5F943040F4CB
:103790009093CB0680914F088F5F80934F080895D8
:1037A0001092CB06F7CF282F9091C503833021F4D8
:1037B00095FD0FC094FD0FC0892F90E0B0E0A0E010
:1037C00004C0B695A795979587952A95D2F78170ED
:1037D000089581E0089580E008952F923F924F92DE
:1037E0005F926F927F928F929F92AF92BF92CF9291
:1037F000DF92EF92FF920F931F93CF93DF93CDB79A
:10380000DEB72E970FB6F894DEBF0FBECDBFF82EF1
:10381000E62E042F122F282F30E03A872987862F93
:1038200090E09C878B87220F331FA985BA852A0FCA
:103830003B1F3E872D87FC01E20FF31FEE0FFF1F9A
:10384000EE0FFF1FE75BFA4F6081718182819381E8
:103850009B01AC010F947D17882309F440C1802F90
:103860008F0D612F6E0D282F30E0F901EE0FFF1F35
:10387000E20FF31FAB85BC85AE0FBF1FAA0FBB1FA6
:10388000AA0FBB1FA75BBA4FAC901196BC901197C3
:103890001296CC9012971396DC90080F802F90E030
:1038A000AC01440F551F480F591FAB85BC85A40FB1
:1038B000B51FAA0FBB1FAA0FBB1FA75BBA4FEC9087
:1038C0001196FC90119712960C91129713969C905A
:1038D000862F90E0AD85BE85A80FB91FAA0FBB1F2C
:1038E000AA0FBB1FA75BBA4F8C9011967C901197C3
:1038F00012966C90129713965C90610F70E02D8574
:103900003E85260F371F220F331F220F331F275BE1
:103910003A4F3E872D87D9014C9011963C901197D4
:1039200012961C91129713962C90E80FF91FEE0F28
:10393000FF1FEE0FFF1FE75BFA4FB081B9832181B4
:103940002A8332813B8383818C83FA01E60FF71F40
:10395000EE0FFF1FEE0FFF1FE75BFA4F90819D8375
:10396000A181AE83B281BF83238128879701402F35
:10397000592DB701802F992D0F947D17882321F0A1
:10398000E12CF12C00E0912C9501A601B501C601B6
:103990000F947D17882319F05701C02ED92C242DA0
:1039A000332D412F522D642D732D812F922D0F9485
:1039B0007D17882321F0412C312C10E0212C282D5B
:1039C000372D462D552D682D772D862D952D0F944D
:1039D0007D17882321F0842C732C612E522C2D818D
:1039E0003E814F8158856D817E818F8198850F94AE
:1039F0007D17882321F01D821E821F82188629814F
:103A00003A814B815C8169817A818B819C810F94A1
:103A10007D17882341F03D8139838E818A839F8180
:103A20009B83A885AC83E985FA85EE0FFF1F298566
:103A30003A85E20FF31F8B859C85E80FF91FEE0F87
:103A4000FF1FEE0FFF1FE75BFA4FFA87E98795012B
:103A5000A601B501C6010F948B149701402F592D73
:103A60000F948A146B017C01282D372D462D552D7E
:103A7000682D772D862D952D0F948B14242D332DA5
:103A8000412F522D0F948A149B01AC01C701B6013E
:103A90000F948B146B017C0129813A814B815C81ED
:103AA00069817A818B819C810F948B142D813E8159
:103AB0004F8158850F948A149B01AC01C701B60150
:103AC0000F948B1420E030E040E450E40F9485150F
:103AD000A985BA856D937D938D939C9313972E96AC
:103AE0000FB6F894DEBF0FBECDBFDF91CF911F910F
:103AF0000F91FF90EF90DF90CF90BF90AF909F908D
:103B00008F907F906F905F904F903F902F9008958F
:103B1000129A08950C94B5990C94B5990C94B59992
:103B20000C94B5990C9467990C9467990C946799C7
:103B30000C94679963E972E084E690E00E94EFC616
:103B40006AEB72E084E690E00C94EFC681110C946D
:103B50009A1D68EB71E084E190E00C94EFC68091CF
:103B60006102882341F06091F9047091FA0441E008
:103B700081E00C94D3E808950E944B930C94A61D09
:103B80000E94A3CF0C94A61D0E9408AC0C949A1D11
:103B9000AF92BF92CF92DF92EF92FF920F931F935B
:103BA000CF93DF936B01E9014A3009F4C1C045317D
:103BB00009F073C0DB011296ED91FC91F280C68191
:103BC000D78180910201809582708093000188E204
:103BD0008A950000E9F7BF2CB29420EFB22230E1C1
:103BE000A32EAF0C48E2E42E88EF0E94331B8E2DEB
:103BF0008A950000E9F7BFE1BF1508F485C08F2D55
:103C0000807780680E94331B8B2D0E94331B8E2D82
:103C10008A950000E9F780E80E94331B80E00E944B
:103C2000331B8E2D8A950000E9F78AEF0E94331B23
:103C30008E2D8A950000E9F78E01005F1F4F888165
:103C4000807F0E94331B89918295807F0E94331B65
:103C5000C017D107A1F78E2D8A950000E9F7F394DC
:103C6000E0E1BE0EFA10C0CF809102018270809315
:103C70000001D6011296CD91DC91CE010E9451EE49
:103C80008111F7C1DF91CF911F910F91FF90EF90BC
:103C9000DF90CF90BF90AF900895FB010281138118
:103CA000423309F4A1C108F4A5C1463409F492C114
:103CB000473409F495C14B3329F589812B81D8010B
:103CC00012966C91129713964C91213009F4E8C129
:103CD000233009F0B2C138EF380F582F91E0431765
:103CE00008F490E041E0531708F040E031E0561747
:103CF00008F430E0592F542B352309F0C6C1942322
:103D000009F0C3C181E0BECF80EE8F0D8068807F57
:103D10000E94331B8F2D8295807F0E94331B8E2D36
:103D20008A950000E9F780E80E94331B80E877CF8E
:103D30008091010182608093010180910201827073
:103D40008093000180910101816080930101809145
:103D50000201817080930001099A119A80910201F9
:103D6000809582708093000188E28A950000E9F7CF
:103D700088E790E0CEE9DFE0FE013197F1F70197A7
:103D8000D9F788EF0E94331B18E2812F8A95000033
:103D9000E9F780E20E94331B80E00E94331B812FF1
:103DA0008A950000E9F780E00E94331B80E80E94BA
:103DB000331B812F8A950000E9F780E00E94331BB6
:103DC00080E10E94331B812F8A950000E9F7CE0124
:103DD0000197F1F7CE010197F1F7CE010197F1F7C5
:103DE000CE010197F1F7CE010197F1F7CE010197CE
:103DF000F1F7CE010197F1F7CE010197F1F7CE016E
:103E00000197F1F7CE010197F1F7CE010197F1F794
:103E1000CE010197F1F7CE010197F1F7CE0101979D
:103E2000F1F72197F1F780E20E94331B80E40E94B2
:103E3000331B812F8A950000E9F780E20E94331B33
:103E400080E60E94331B1A950000E9F710E0D0E0ED
:103E5000C8E28D2F807780680E94331B812F0E94DB
:103E6000331B8C2F8A950000E9F780E80E94331BF2
:103E700080E00E94331B8C2F8A950000E9F78AEFBF
:103E80000E94331B8C2F8A950000E9F790E211986D
:103E900080910201817080930001119A00001198B5
:103EA00080910201817080930001119A00001198A5
:103EB00080910201817080930001119A0000119895
:103EC00080910201817080930001119A0000119885
:103ED00080910201817080930001119A0000119875
:103EE00080910201817080930001119A0000119865
:103EF00080910201817080930001119A0000119855
:103F000080910201817080930001119A0000119844
:103F100080910201817080930001119A0000119834
:103F200080910201817080930001119A0000119824
:103F300080910201817080930001119A0000119814
:103F400080910201817080930001119A0000119804
:103F500080910201817080930001119A00001198F4
:103F600080910201817080930001119A00001198E4
:103F700080910201817080930001119A00001198D4
:103F800080910201817080930001119A00008C2FB2
:103F90008A950000E9F7915009F079CF88EF0E94E7
:103FA000331B8C2F8A950000E9F7DF5F105FD0325A
:103FB00009F04FCF80E00E94331B80EC0E94331B3E
:103FC000CA950000E9F78091020182708093000198
:103FD00081E058CED80115968C91888381E052CE2D
:103FE000F80181818883FACFB901C8010E943BEEB4
:103FF00081E048CE443171F0473109F083CE188218
:10400000F80182818983858181508A8383818B83B2
:1040100081E038CED80115964C91159750E0440FA9
:10402000551F70E060E016968D919C910F941718C3
:10403000C8010E9467EE81E025CE481708F462CEE1
:10404000861708F45FCEFA80E12CD12C243070F46E
:104050001DC0BE01C8010E943BEE898198819D0D63
:1040600098838E0D8983FF0C09F44CCEF7FEF6CFB2
:10407000F0CF4D8150E0440F551F70E060E08E811D
:104080009F810F94171881E0FDCDFA8030E0F9018F
:10409000E657FD4FD0802A573D4FF901E080E6CF2B
:1040A00058E0580F382F1ACEDF92EF92FF920F93FD
:1040B0001F93CF93DF93EC01D62E1CAD0BAD7C018B
:1040C00084E0E80EF11CE98DFA8DC7011995412FA6
:1040D000480F2D2D602FC7010E94E9F09BAD890F7D
:1040E0008BAF81E090E0DF91CF911F910F91FF9016
:1040F000EF90DF9008959F92AF92BF92CF92DF92A0
:10410000EF92FF920F931F93CF93DF93EC018B01FC
:10411000942EA52E8A859B858617970731F0888176
:1041200099810E9491F01B870A878885998501965D
:1041300049F5BC800A818E81080FC880D980D601DC
:104140005596ED91FC91C6011995B80EE92CFA2C03
:1041500010E0F70121917F01211127C08E819F81FD
:10416000810F911D9F838E8390E080E0DF91CF913E
:104170001F910F91FF90EF90DF90CF90BF90AF9085
:104180009F9008950E811F81692D7A2D88819981D4
:104190000E949FE8800F912F911D2885398528174F
:1041A000390738F681E090E0E1CF4B2D602FC60152
:1041B0000E94E9F0080F180FCCCFEF92FF920F93F7
:1041C0001F93CF93DF93EC018B017A018A859B8546
:1041D0008617970731F0888199810E9491F01B879B
:1041E0000A87B701888199810E949FE82E813F81CB
:1041F000820F932F911D9F838E8390E080E0DF914B
:10420000CF911F910F91FF90EF9008952F923F92C1
:104210004F925F927F928F929F92AF92BF92CF9276
:10422000DF92EF92FF920F931F93CF93DF93D62EDF
:10423000C72E742EFC0180809180A280B380C501BE
:10424000B40120E13EE040E050E00F942714122F2B
:10425000032FC22FD32F8CE3282E312C412C512C2D
:10426000C501B401A20191010F942714CA01B9013B
:10427000A20191010F942714F62EE72E772051F119
:10428000C501B40120E831E541E050E00F94271466
:104290008901EF92FF92CE0168E170E00F94B717A9
:1042A0009F938F933F932F9383ED91E19F938F93F0
:1042B000CF92DF920F947A0DEDB7FEB73A960FB614
:1042C000F894FEBF0FBEEDBF88E00A301105D0F0B4
:1042D00089E018C0C436D10538F57F936F930F93EA
:1042E0001F9387EC91E19F938F93CF92DF920F946E
:1042F0007A0D8DB79EB708960FB6F8949EBF0FBE85
:104300008DBF85E0DF91CF911F910F91FF90EF90CE
:10431000DF90CF90BF90AF909F908F907F905F90F5
:104320004F903F902F9008957F936F930F931F931B
:104330008DEB91E19F938F93CF92DF920F947A0D43
:10434000EDB7FEB738960FB6F894FEBF0FBEEDBFBF
:1043500086E0D8CFCF92DF92EF92FF920F931F9318
:10436000CF93DF93CDB7DEB72C970FB6F894DEBFAF
:104370000FBECDBFF0906511E090661120917204E0
:1043800021111DC04DE751E16E2D8F2D0E9455F179
:1043900090E080E0F80EF0926511E09266119927A6
:1043A0002C960FB6F894DEBF0FBECDBFDF91CF9134
:1043B0001F910F91FF90EF90DF90CF900895C090E4
:1043C0003211D09033112EE231E13A8329832F2D1F
:1043D00030E03C832B832E2D30E03E832D831886E6
:1043E0001F827A8769871C861B860BE710E29E0175
:1043F0002F5F3F4F47E15BE1BC01C6010E94BED287
:10440000B6018EE291E10E9491F08F819885C2CF32
:104410008091BA039091BB03009731F04AE050E0DD
:1044200070E060E00D94000C60E070E0CB01089556
:104430008091BA039091BB03009731F04AE050E0BD
:1044400070E060E00D94D20A60E070E0CB01089566
:104450000E94182297FD0CC00E9418226F3F710520
:104460008105910509F034F40E941822862F0895E1
:1044700080E008958FEF08958091BA039091BB0377
:10448000892B41F00E94282291E0811101C090E027
:10449000892F089591E0FCCF0E941822CB01089546
:1044A000CF92DF92EF92FF920F931F93CF93DF9300
:1044B0006B017A01EC01CD5EDC4F28813CE0389F36
:1044C0008001399F100D112427FF24C0FB011182A8
:1044D000108288818F5F888388819801280F311D21
:1044E00087FD3A95C9012091FB10F601281719069E
:1044F00029F024F088818C300CF43CC080819181BB
:10450000049680349C4908F475C0F601808191813D
:10451000049672C088819801280F311D87FD3A9555
:10452000C9012091FB102817190699F294F288818D
:10453000A801480F511D87FD5A95FA01EE0FFF1F84
:10454000E40FF51FED54FF4E808187FFC2CF8881B5
:10455000F801E80FF11D87FDFA95CF01EE0FFF1F5F
:10456000E80FF91FED54FF4E808160E08F770E94C5
:10457000CEECAFCF808191812881A801420F511DDF
:1045800027FD5A959A01FA01EE0FFF1FE20FF31F64
:10459000ED54FF4E21813281820F931FF7019183E9
:1045A000808388819801280F311D87FD3A95F90194
:1045B000EE0FFF1FE20FF31FED54FF4E808187FFC8
:1045C00020C08881080F111D87FD1A95F801EE0F94
:1045D000FF1FE00FF11FED54FF4E808161E08F77E8
:1045E000DF91CF911F910F91FF90EF90DF90CF90CF
:1045F0000C94CEEC80E49CE9F701918380838FEFEB
:104600008883DF91CF911F910F91FF90EF90DF9002
:10461000CF900895CF93DF9300D01F92CDB7DEB730
:104620000F94FE150F94E80D69837A838B839C8326
:10463000CE0101960E94B6AF0F900F900F900F9091
:10464000DF91CF9108958F929F92AF92BF92CF92B8
:10465000DF92EF92FF926B017C0120E030E0A90134
:104660000F94E30D87FD6BC06DEB77E386E095E378
:10467000A70196010F948B146B017C0120E030E0C0
:1046800040E251E40F94490E20E030E040E251E472
:104690000F94490E4B015C0120E030E0A901C701F5
:1046A000B6010F94E30D20E030E040EA50E487FFCC
:1046B00004C020E030E040EA50ECC501B4010F94A2
:1046C0008B1420E030E040E251E40F9485150F9404
:1046D000F7159B018BE237FF05C022273327261BE6
:1046E000370B8DE280930005C90164E670E00F94FA
:1046F000CB17CB01EAE0F0E0BF010F94CB17805D50
:1047000080930105C901BF010F94CB17282FCB015E
:10471000BF010F94CB17805D809302058EE28093DA
:104720000305205D2093040580E095E0FF90EF9065
:10473000DF90CF90BF90AF909F908F9008956DEBDA
:1047400077E386E095EB94CF8F929F92AF92BF92E2
:10475000CF92DF92EF92FF92CF936B017C0120E02A
:1047600030E0A9010F94E30D87FDAAC06DEB77E35C
:1047700086E095E3A70196010F948B146B017C01F1
:1047800020E030E0A9010F94E30D87FF9EC0C70130
:10479000B601905820E030E040E251E40F94490E19
:1047A00020E030E040E251E40F94490E20E030E098
:1047B00040EA50E40F948B1420E030E040E251E4F2
:1047C0000F9485150F94F7156B017C0180E280939F
:1047D000FE0460E280E1C81687E2D806E104F10435
:1047E0008CF0C701B60120E137E240E050E00F94C1
:1047F0004914CA01B9012AE030E040E050E00F94CA
:104800004914605D6093FF0460E288EEC81683E09F
:10481000D806E104F1048CF0C701B60128EE33E0BC
:1048200040E050E00F944914CA01B9012AE030E099
:1048300040E050E00F944914605D6093000560E231
:1048400084E6C816D104E104F1048CF0C701B60176
:1048500024E630E040E050E00F944914CA01B90169
:104860002AE030E040E050E00F944914605D60932E
:1048700001058AE0882E912CA12CB12CC701B6012C
:10488000A50194010F944914C62FCA01B901A501CD
:1048900094010F944914605D609302058EE2809349
:1048A0000305C05DC09304058EEF94E0CF91FF90A7
:1048B000EF90DF90CF90BF90AF909F908F90089532
:1048C0006DEB77E386E095EB55CF20E030E040E2FA
:1048D00051E4C701B60162CFCF92DF92EF92FF920F
:1048E000CF93DF9300D01F92CDB7DEB76B017C0171
:1048F00020E030E0A9010F94E30D87FD1BC06DEBB4
:1049000077E386E095E3A70196010F948B14698302
:104910007A838B839C83CE0101960E94B6AF0F9061
:104920000F900F900F90DF91CF91FF90EF90DF905D
:10493000CF9008956DEB77E386E095EBE4CF8F920F
:104940009F92AF92BF92CF92DF92EF92FF92CF935E
:104950006B017C0120E030E0A9010F94E30D87FD9D
:1049600093C06DEB77E386E095E3A70196010F9482
:104970008B146B017C0120E030E040E251E40F94A5
:10498000490E20E030E04AE754E40F94490E4B0111
:104990005C0120E030E0A901C701B6010F94E30DEE
:1049A00020E030E040EA50E487FF04C020E030E03F
:1049B00040EA50ECC501B4010F948B1420E030E0C4
:1049C00040E251E40F9485150F94F7156B017C01BB
:1049D000C114D104E104F10409F45BC0F7FE59C02D
:1049E000F094E094D094C094C11CD11CE11CF11C43
:1049F0008DE28093FF04C701B60128EE33E040E06A
:104A000050E00F9449148AE0882E912CA12CB12CEF
:104A1000CA01B901A50194010F944914605D609326
:104A200000058EE280930105C701B60124E630E05F
:104A300040E050E00F944914CA01B901A501940166
:104A40000F944914605D60930205C701B601A5018A
:104A500094010F944914C62FCA01B901A50194010C
:104A60000F944914605D60930305C05DC093040515
:104A70008FEF94E0CF91FF90EF90DF90CF90BF90B9
:104A8000AF909F908F9008956DEB77E386E095EB64
:104A90006CCF80E2AECF8F929F92AF92BF92CF92B7
:104AA000DF92EF92FF92CF936B017C0120E030E028
:104AB000A9010F94E30D87FFA3C06DEB77E386E0B8
:104AC00095EBA70196010F948B146B017C0120E0FC
:104AD00030E040E251E40F94490E20E030E048EC31
:104AE00052E40F94490E4B015C0120E030E040E2BB
:104AF00051ECC701B6010F94E30D181654F420E0F1
:104B000030E048EC52E4C701B6010F94EB1687FD84
:104B10008BC020E030E0A901C701B6010F94E30D7E
:104B200087FF73C060E070E080EA90ECA50194011B
:104B30000F948B1420E030E040E251E40F9485158F
:104B40000F94F7156B017C01F7FC64C020E137E29C
:104B500040E050E00F944914CA01B9012AE030E066
:104B600040E050E00F944914605D6093FF04C7017A
:104B7000B60128EE33E040E050E00F9449149AE08B
:104B8000892E912CA12CB12CCA01B901A501940147
:104B90000F944914605D60930005C701B60124E6D7
:104BA00030E040E050E00F944914CA01B901A5017A
:104BB00094010F944914605D609301058EE2809327
:104BC0000205C701B601A50194010F944914C62F2F
:104BD000CA01B901A50194010F944914605D609365
:104BE0000305C05DC09304058FEF94E0CF91FF9063
:104BF000EF90DF90CF90BF90AF909F908F900895EF
:104C00006DEB77E386E095E35CCF60E070E080EAEF
:104C100090E48CCFF094E094D094C094C11CD11C4B
:104C2000E11CF11C6DE2A1CF20E030E0A901C70139
:104C3000B6010F94E30D87FF6AC060E070E080EA80
:104C400090ECA50194010F948B1420E030E040E239
:104C500051E40F9485150F94F7154B015C0120E08A
:104C600030E0A901C701B6010F94EB1687FD0BC018
:104C700020E030E040E251E4C701B6010F94E30DBB
:104C800060E287FD13C0B7FC47C0C501B40128EE40
:104C900033E040E050E00F944914CA01B9012AE022
:104CA00030E040E050E00F944914605D60930005EF
:104CB000C501B40124E630E040E050E00F9449140F
:104CC0008AE0C82ED12CE12CF12CCA01B901A70130
:104CD00096010F944914605D609301058EE2809304
:104CE0000205C501B401A70196010F944914C62F0E
:104CF000CA01B901A70196010F944914605D609340
:104D00000305C05DC093040580E095E06FCF60E0CF
:104D100070E080EA90E495CFB094A0949094809451
:104D2000811C911CA11CB11C6DE2C0CFCF92DF92FF
:104D3000EF92FF926B017C0120E030E0A9010F941B
:104D4000E30D87FD26C06DEB77E386E095E3A701D1
:104D500096010F948B146B017C0120E030E0A901D7
:104D60000F94E30D20E030E040E05FE387FF04C0F4
:104D700020E030E040E05FEBC701B6010F948B14F8
:104D80000F94F715CB01FF90EF90DF90CF900C942C
:104D9000B8B06DEB77E386E095EBD9CFCF93DF9397
:104DA000CDB7DEB720E2488559856F818E810E949C
:104DB00030E9DF91CF9108950F931F93522F2091E7
:104DC0002811309129112817390721F190932911C1
:104DD000809328118B0130E020E000936408109349
:104DE0006508209366083093670840935D085093E8
:104DF0005E088A5A944421F41092FD041092F8043B
:104E000082E08093610281E0809374081092FC0438
:104E10001092FB041F910F91089520E040E070E094
:104E200060E08AEA94E40C94DC26CF930E9408ACFC
:104E30000E944B93C82F882319F080E00E941CC762
:104E40008C2F0E94A61DCF910C940D2780910211EA
:104E500090910311891B8F7051F48091B7088130B4
:104E600031F08091851282FB882780F9089581E0D6
:104E70000895E091F804EE2389F0E150E093F804FE
:104E800088E0E89FF0011124E853FB4F62817381B1
:104E900027814681808191810C94DC260C940D271A
:104EA000E091F804E63010F581E08E0F8093F8046D
:104EB0004091640850916508609166087091670898
:104EC00090915D0880915E0828E0E29FF001112436
:104ED000E853FB4F20912811309129113183208311
:104EE0004283538364837583968387830895809375
:104EF000590820E040E070E060E08FE59FE20C940C
:104F0000DC260F931F93CF93DF938C016F3F19F42F
:104F100010922E0E60E020912E0E862F062E000C91
:104F2000990B2817190609F0F4F460932E0EC801A6
:104F30000F94300D800F911FEC01C01BD10BCB32B1
:104F4000D1053CF00197FC012491207C2038D1F35D
:104F5000F3CFDD27AE01B80183E09EE00F94510D41
:104F6000CD5FD14F1882DF91CF911F910F9108959E
:104F7000CF938091C004811109C087ED92E1909395
:104F8000FA048093F90481E08093C0040E945027C2
:104F900020E040E070E060E08FEA9DE10E94DC26C6
:104FA000C1E0C093FD040E94D9991092FD040E94B3
:104FB0003927C093FD0460E08FE39BE20E948127C4
:104FC00083ED92E19093CD068093CC06CF91089526
:104FD0001092BF04109260028091851280648093C9
:104FE00085120E9488AF60E085EC92E10E948127E3
:104FF0000C940D27CF93DF93CDB7DEB78E819091C0
:105000002E0E891768F080932E0E9E01275F3F4F6A
:105010004F8158856AE270E083E09EE00F94AA0D0C
:10502000DF91CF9108950F931F930E948DED009112
:10503000BB041091BC042091BD043091BE04601BE0
:10504000710B820B930B97FD0CC086B186FB8827F2
:1050500080F991E08927349B8260329B8460809341
:10506000BA048091BA0481709091BA0491FD826073
:105070009091B904981749F0813009F148F08230D5
:1050800079F0833091F08093B9041F910F910895C6
:10509000913079F09230B9F79091B80491500CC0EA
:1050A000992339F09330C1F3EECF9130A9F39230C8
:1050B00051F79091B8049F5F9093B804E4CF99237F
:1050C00059F3933001F7F5CFCF92DF92EF92FF9231
:1050D000CF93C82F0E948DED6B017C0124EA30E74D
:1050E0004DE75FE3609118027091190280911A02F6
:1050F00090911B020F94E30D87FD18C08AEF90E09A
:10510000A0E0B0E08C0D9D1DAE1DBF1D8093A804D6
:105110009093A904A093AA04B093AB04C093160281
:10512000CF91FF90EF90DF90CF90089580E090E0D6
:10513000DC01E8CF81E080937204EFE2F0E182EFDE
:1051400091E191838083138212823E98469A3C9823
:10515000449A3A98429A0E9413281092B8040895EB
:10516000AF92BF92CF92DF92EF92FF920F931F9375
:10517000CF93DF93EC015B018A01FB01199587FD59
:1051800016C0C82ED12CF12CE12C2196F801C0823A
:10519000D182E282F382CE01DF91CF911F910F91F4
:1051A000FF90EF90DF90CF90BF90AF900895982F31
:1051B000907E903CA9F48F7190E0B0E0A0E06C018B
:1051C0007D0126E0CC0CDD1CEE1CFF1C2A95D1F7DE
:1051D000CE010196F50119958F73C82A2296D6CF74
:1051E000982F907F903E11F58F7090E0B0E0A0E096
:1051F0006C017D0186E0CC0CDD1CEE1CFF1C8A9549
:10520000D1F7CE010196F50119958F73C82A96E062
:10521000CC0CDD1CEE1CFF1C9A95D1F7CE0102963A
:10522000F50119958F73C82A2396B0CF982F987FD0
:10523000903F79F5877090E0B0E0A0E06C017D01CF
:10524000F6E0CC0CDD1CEE1CFF1CFA95D1F7CE016C
:105250000196F50119958F73C82AA6E0CC0CDD1CC8
:10526000EE1CFF1CAA95D1F7CE010296F501199507
:105270008F73C82AB6E0CC0CDD1CEE1CFF1CBA955F
:10528000D1F7CE010396F50119958F73C82A24969C
:105290007DCF982F9C7F983FE1F5837090E0B0E040
:1052A000A0E06C017D0156E0CC0CDD1CEE1CFF1C67
:1052B0005A95D1F7CE010196F50119958F73C82A39
:1052C00066E0CC0CDD1CEE1CFF1C6A95D1F7CE010C
:1052D0000296F50119958F73C82A76E0CC0CDD1C77
:1052E000EE1CFF1C7A95D1F7CE010396F5011995B6
:1052F0008F73C82AE6E0CC0CDD1CEE1CFF1CEA957F
:10530000D1F7CE010496F50119958F73C82A259619
:105310003DCF982F9E7F9C3F09F049C0817090E05F
:10532000B0E0A0E06C017D0186E0CC0CDD1CEE1C41
:10533000FF1C8A95D1F7CE010196F50119958F735F
:10534000C82A96E0CC0CDD1CEE1CFF1C9A95D1F708
:10535000CE010296F50119958F73C82A26E0CC0C70
:10536000DD1CEE1CFF1C2A95D1F7CE010396F5013A
:1053700019958F73C82A36E0CC0CDD1CEE1CFF1C7F
:105380003A95D1F7CE010496F50119958F73C82A85
:1053900046E0CC0CDD1CEE1CFF1C4A95D1F7CE017B
:1053A0000596F50119958F73C82A2696EFCE982F8A
:1053B000907C903841F4807C803869F42196CE014D
:1053C000F5011995F8CF8E7F8D3F28F02196CE01FB
:1053D000F5011995F8CFC12CD12C7601D7CE1F93AA
:1053E000CF93DF9300D01F92CDB7DEB710E0AE01B0
:1053F0004F5F5F4F67E17BE10E94B02849815A818E
:105400006B817C81452B462B472B11F01F5FEFCF23
:10541000812F0F900F900F900F90DF91CF911F91E0
:1054200008951F93CF93DF9300D01F92CDB7DEB7BF
:1054300010E0AE014F5F5F4F6AE17BE10E94B02850
:1054400049815A816B817C81452B462B472B11F07A
:105450001F5FEFCF812F0F900F900F900F90DF9174
:10546000CF911F9108959CE0899F802D112491E098
:10547000980F909371042CE0280F20937A0830E065
:105480002E5F3F4F409162114217130619F014F03E
:1054900080E00895209164119217D0F7662341F0BF
:1054A0008E5F0E94D7EF80917A088E5F0E94D7EFBF
:1054B00080917A0890916211891750F320916411BC
:1054C00090917104291720F3109265118093661151
:1054D00081E0089520917004022E000C330B821796
:1054E000130641F08093700463E074E18EE291E171
:1054F0000C9491F00895CF93DF93FC0125AD211119
:1055000004C021E025AF0E9472EEC0913011D0910D
:105510003111E0915F11F091601182E01995E091F5
:105520005F11F091601181E0199530E020E044E1D5
:10553000BE018EE291E10E946EEE21E631E147E18B
:10554000BE018EE291E10E946EEEE0915F11F0915A
:10555000601180E0DF91CF9119944F925F926F922A
:105560007F928F929F92AF92BF92CF92DF92EF92F3
:10557000FF920F931F93CF93DF9300D01F92CDB76D
:10558000DEB70E948DED4B015C01809116028F3FCA
:10559000F1F10E948DEDC090A804D090A904E09094
:1055A000AA04F090AB046C197D098E099F0997FD40
:1055B0002EC080910211909103118F5F8F70891717
:1055C00031F1E0911602E43008F05AC024E0E29F85
:1055D000F0011124E257FD4F80819181A281B381B6
:1055E00089839A83AB83BC83C12CD12C76018E0135
:1055F0000F5F1F4F29EF3DE045EF5DE061EF7DE07C
:105600008DEE9DE00E94F7E48FEF809316020E94DA
:1056100013288091BA0482FF3CC08091B7048111A5
:105620003AC091E09093B7048091BF04892780939A
:1056300052081092BF0483E0809361021092BA0472
:105640000E948DED6C507E4F8F4F9F4F6093BB0437
:105650007093BC048093BD049093BE0468E873E12A
:1056600082E090E00E94EFC616E01150A1F00E9487
:105670006AB262E070E080E090E00E945AEDF5CFFF
:105680008091620290916302A0916402B0916502E0
:10569000A7CF1092B7048091B3049091B404A09165
:1056A000B504B091B604A5019401281B390B4A0B2F
:1056B0005B0BDA01C901B7FF05C08091FC048823A8
:1056C00009F4BBC1D501C4018C599F4FAF4FBF4FE7
:1056D0008093B3049093B404A093B504B093B6043C
:1056E0006091B804062E000C770B77FF03C071950C
:1056F000619571099091B8048091B204981365C0C6
:10570000633008F062C01092B8048091B8048093AE
:10571000B204643008F069C0809152088111E7C07A
:1057200080912811909129118A5A944441F48091D2
:105730001702882309F4EDC08150809317020E945C
:10574000069CC090DC08D090DD08E090DE08F09068
:10575000DF0881110E94139CD701C6013AE0B6957B
:10576000A795979587953A95D1F7009741E0A407BB
:10577000B10520F08FEF9FEFA0E0B0E09695879500
:10578000209161022111D7C03091FC04311183C1F5
:1057900080912811909129118A5A944409F462C188
:1057A0008091FD0481115EC18091AE049091AF049F
:1057B000A091B004B091B104881A990AAA0ABB0A50
:1057C000B7FC5EC10E940D275BC1633009F09DCF1D
:1057D0008091B80487FD07C081E0880F880F80930F
:1057E000B80464E092CF8FEFF8CF8091790821E080
:1057F00030E040E050E0882309F456C0C0907508BE
:10580000D0907608E0907708F0907808C114D10421
:10581000E104F104E9F170E090E080E00F94E80D1C
:1058200020E030E040E85EE30F94490E2B013C019C
:10583000C501B4016C197D098E099F090F94E80D0B
:105840009B01AC01C301B2010F94851520E030E04B
:105850004AE754E40F94490E6B017C0120E030E0EC
:1058600040EA52E40F94EB1624E630E040E050E0CA
:1058700087FF12C020E030E040EF51E4C701B601DD
:105880000F94EB162AE030E040E050E087FF04C0C0
:1058900021E030E040E050E0809275089092760878
:1058A000A0927708B0927808A091B8040A2E000C54
:1058B000BB0B0F94731424E030E040E050E00F94F1
:1058C00049148091640890916508A0916608B09190
:1058D0006708820F931FA41FB51F809364089093DD
:1058E0006508A0936608B09367081092B804D501C4
:1058F000C4018856954CAF4FBF4F8093AE04909330
:10590000AF04A093B004B093B10481E0809361022E
:1059100007CF8CE0809317028091AC049091AD0486
:10592000009729F001979093AD048093AC0481E037
:105930008093610204CF009741F04091AC045091F4
:10594000AD044817590708F023CF8091FC0481115A
:1059500012C0223038F0243008F441C0243011F451
:10596000109261028AE291E10E947B2A81E0809399
:1059700060088093FC0483E00E946A2A81E080939F
:105980004E11E0912811F09129111995109260089B
:105990008091FC04811127C0109252088091281137
:1059A000909129118A5A944409F0FACE0E948DED03
:1059B000DC01CB0188199909AA09BB09C090AC0484
:1059C000D090AD04F12CE12CC816D906EA06FB06EE
:1059D00008F0DECE9093AD048093AC04D9CE81E084
:1059E00080936102BFCF8EE291E10E945FF091E06F
:1059F000811101C090E09093FC04882369F28091AA
:105A00002811909129118A5A9444B9F40E948DED7D
:105A1000DC01CB0188199909AA09BB09C090AC0423
:105A2000D090AD04F12CE12CC816D906EA06FB068D
:105A300020F49093AD048093AC040F900F900F90DE
:105A40000F90DF91CF911F910F91FF90EF90DF901A
:105A5000CF90BF90AF909F908F907F906F905F900E
:105A60004F90089548E9840E4AE3941EA11CB11C8E
:105A70008092AE049092AF04A092B004B092B104B0
:105A80008091FC048111D9CF809161028130A9F607
:105A900010926102D2CF009709F46DCF4ECFCF9212
:105AA000DF92EF92FF920F931F93CF93DF93CDB7C7
:105AB000DEB72C970FB6F894DEBF0FBECDBF6F3F99
:105AC00071058105910509F0D0F48AE291E10E9407
:105AD0005420E0913211F09133113196849190E08D
