:100000000C9423190C9454190C9454190C945419ED
:100010000C9454190C9454190C9454190C945419AC
:100020000C9454190C9454190C9454190C9454199C
:100030000C9454190C9454190C9454190C9454198C
:100040000C9454190C9411EE0C9454190C945419EA
:100050000C9454190C9454190C94D2E10C9435CD91
:100060000C9454190C94759B0C946B9B0C94541920
:100070000C9454190C9454190C9454190C9454194C
:100080000C94C04C0C9454190C9454190C9454199D
:100090000C9454190C9454190C9454190C9454192C
:1000A0000C9454190C9454190C94F44B0C9454194A
:1000B0000C9454190C9454190C9454190C9454190C
:1000C0000C9454190C9454190C9454190C945419FC
:1000D0000C9454190C9454190C9454190C945419EC
:1000E0000C945419084AD73B3BCE016E84BCBFFD2B
:1000F000C12F3D6C74319ABD56833DDA3D00C77FF8
:1001000011BED9E4BB4C3E916BAAAABE0000008090
:100110003F05A84CCDB2D44EB93836A9020C50B91F
:10012000918688083CA6AAAA2ABE000000803F004B
:100130000D94A8300D94CD2B0D945B0E0C94FDBF47
:100140000C949D9F0D94FF1F0D94FD1D0C94C8BF32
:100150000C943D970C943E9C0C9433970D94632D16
:100160000D94A10D0D9459270D944F0D0C9486BF3D
:100170000C9439970C94191F0C9457A10C9457198F
:100180000C9421D00D9455330D94DF450D94C83453
:100190000C94709C0C947C9C0D94F32C0C94B6BF26
:1001A0000C949ABF0D94AF300D9471580D94B833E0
:1001B0000D94420F0D94EB610D9494330C948BBF0E
:1001C0000C9443970C94B2CE0D946A330C94DF1EBA
:1001D0000C94A4CE0C94449C0D94CF0E0D944E33ED
:1001E0000D945B0F0D94BC340C94489C0D94321EFE
:1001F0000D94D2350D948E0D0C9407C00D945C5265
:100200000D9490350D9478330D949A300C94F01E23
:100210000D94B40F0C941BC00C94889C0C94829C7D
:100220000D944E470D9419350C94D2BF0C94409701
:100230000D94F8560D9441470C941F970D94B40EED
:100240000D941B0E0D94E04A0D94C5340D947F332C
:100250000C94BCCE0C9430970C94A4BF0D94F40F66
:100260000D94B40D0D9493300D94740E0D94080FED
:100270000C941A9D0D943A350D94875A0D94B21E24
:100280000D94B9340D94AD320D948B1E0C9457BE61
:100290000D94BF340D949F4A0D948D330C944C9C57
:1002A0000C94F3BF0C9436970C94CCCE0D943D5423
:1002B0000C94529C0D9420210C945E9C0C94DCBFF9
:1002C0000D945C330C94649C0D94020E0D942010DC
:1002D0000D94661E0D949B0F0D94C10D0C94589CAB
:1002E0000C94329C0D94A31D0C9422970D94C1483C
:1002F0000C9496CE0C94C7CE0D945F1E0D94581E90
:100300000C94769C0C9407CD0D9443290D94713375
:100310000D943A310C94389C0D94462E0C94A21BEB
:100320000D94061E0D94A1300C9411C00D94A732AB
:100330000D94C2340C945C1F0C94AACE0D94D60577
:100340000D94B6340D9444520D9474230C9490BFC4
:100350000C942D970C946A9C0D947F140D94DA0DD7
:100360000D94511E0D94A1320D94F50E0D94064F6F
:100370000D9486330D947B140C94BEBF0D94EE0D3A
:100380000C94C2CE0D9463330D94B1350C94561970
:100390000C94A69F0C942A970C9488990D946B0D3D
:1003A0000C94679D0C948D9C0D944C0D0D9407102E
:1003B0000C94AEBF0D94CB340C94E9BF4E414E4922
:1003C0004E495459494E46CDCCCC3D0AD7233C1713
:1003D000B7D13877CC2B329595E6241FB14F0A0060
:1003E0000020410000C84200401C4620BCBE4CCA50
:1003F0001B0E5AAEC59D7400407A10F35A00A072CD
:100400004E18090010A5D4E80000E876481700004F
:10041000E40B54020000CA9A3B000000E1F505001D
:100420000080969800000040420F000000A0860166
:10043000000000102700000000E803000000006436
:1004400000000000000A00000000000100000000A1
:10045000002C76D888DC674F0823DFC1DFAE59E176
:10046000B1B796E5E3E453C63AE651997696E8E6E5
:10047000C28426EB898C9B62ED407C6FFCEFBC9CB8
:100480009F40F2BAA56FA5F490055A2AF75C936BCA
:100490006CF9676DC11BFCE0E40D47FEF520E6B585
:1004A00000D0ED902E0300943577050080841E085F
:1004B0000000204E0A000000C80C333333330F987D
:1004C0006E12831141EF8D2114893BE65516CFFE44
:1004D000E6DB18D1844B381BF77C1D901DA4BBE4D0
:1004E00024203284725E228100C9F124ECA1E53D12
:1004F00027434F4D4D554E49434154494F4E0044BB
:10050000525952554E004552524F525300494E4691
:100510004F004543484F004572726F7220777269F1
:1005200074696E6720746F20454550524F4D210A03
:10053000002121204B494C4C206361757365642078
:100540006279204B494C4C20627574746F6E2F7029
:10055000696E0A002121204B494C4C206361757360
:10056000656420627920746F6F206D7563682069FF
:100570006E6163746976652074696D65202D2063F2
:10058000757272656E7420636F6D6D616E643A2072
:10059000004B494C4C45442E20005072696E7465E6
:1005A000722068616C7465642E206B696C6C2829FC
:1005B0002063616C6C6564210A0053544F505045B0
:1005C000442E20005072696E7465722073746F70CF
:1005D0007065642064756520746F206572726F7237
:1005E000732E2046697820746865206572726F7278
:1005F00020616E6420757365204D39393920746F20
:1006000020726573746172742E202854656D706554
:100610007261747572652069732072657365742EDA
:100620002053657420697420616674657220726558
:100630007374617274696E67290A002020506C61BE
:100640006E6E657242756666657242797465733A5C
:1006500020002046726565204D656D6F72793A20E5
:1006600000436F6D70696C65643A204D6179203389
:100670003020323032340A00204C617374205570BF
:1006800064617465643A20323032322D30372D3255
:1006900038207C20417574686F723A202853656E4B
:1006A0007468696C20322C2064656661756C7420F6
:1006B000636F6E666967290A00322E302E372E323C
:1006C0005F53524B5F340A004D61726C696E0020BB
:1006D000536F6674776172652052657365740A00A2
:1006E000205761746368646F672052657365740A8C
:1006F000002042726F776E206F75742052657365AB
:10070000740A002045787465726E616C20526573BE
:1007100065740A00506F77657255700A0047323869
:100720005859004D31303031006563686F3A0045EB
:1007300072726F723A0042696C696E656172204C28
:100740006576656C696E6720477269643A0A0021B4
:10075000212053544F502063616C6C6564206265A6
:100760006361757365206F6620424C546F756368D2
:10077000206572726F72202D2072657374617274BD
:100780002077697468204D3939390A004D657368DE
:1007900020706F696E74206F7574206F66207261AF
:1007A0006E67650A004F46460A0046616465204848
:1007B00065696768742000426564204C6576656CE5
:1007C000696E6720004661696C656420746F2065FE
:1007D0006E61626C6520426564204C6576656C696B
:1007E0006E670A00496E76616C6964206D65736896
:1007F0002E0A0050726F62696E6720506F696E74C6
:100800000025532025692F25690050726F62696E9B
:1008100067206D65736820706F696E7420002028F2
:1008200044525952554E2900473239204175746F50
:1008300020426564204C6576656C696E67003F20D8
:10084000284C2C522C462C4229206F7574206F6640
:1008500020626F756E64732E0A003F2856296572F8
:10086000626F7365206C6576656C20696D706C6174
:10087000757369626C652028302D34292E0A004278
:100880006164205A2076616C75650A004E6F2062A3
:10089000696C696E65617220677269640A004D3423
:1008A000323120696E636F72726563742070617299
:1008B000616D657465722075736167650A005A2001
:1008C00050726F62652050617374204265640A0043
:1008D0005A2050726F6265205061737420426564C3
:1008E00000205200416363656C65726174696F6ECC
:1008F0003A2050003F4A206F7574206F6620726165
:100900006E67652028302E303120746F20302E33F2
:10091000290A0046523A0020466C6F773A20004977
:100920006E76616C69642065787472756465720AAC
:100930000020643A0020693A0020703A006469732C
:100940000043290A0061626C656420286D696E208D
:1009500074656D702000436F6C64206578747275E7
:10096000646573206172652000204D393220580083
:100970006F66660044454255473A004E6F204D6F02
:1009800076652E0020204D61783A200020204D69A8
:100990006E3A2000536F667420656E6473746F70D6
:1009A000733A200020536572766F20003344205044
:1009B00072696E746572204F46462E00454550524E
:1009C0004F4D204F4B0A0020496E76616C696420C0
:1009D00065787472756465722000627573793A2067
:1009E00070617573656420666F7220696E707574CE
:1009F0000A00627573793A207061757365642066C8
:100A00006F7220757365720A00627573793A20708F
:100A1000726F63657373696E670A004F666673650C
:100A20007473204170706C696564004572723A207D
:100A3000546F6F206661722100546F6F206661727F
:100A40002066726F6D207265666572656E636520E3
:100A5000706F696E740A004D313133205300436169
:100A6000703A004348414D4245525F54454D504510
:100A700052415455524500424142595354455050F9
:100A8000494E470041524353004D4F54494F4E5F2A
:100A90004D4F44455300544845524D414C5F5052D0
:100AA0004F54454354494F4E004C4F4E475F4649C3
:100AB0004C454E414D45004155544F5245504F52C3
:100AC000545F53445F53544154555300534443417E
:100AD00052440050524F4D50545F535550504F5256
:100AE0005400454D455247454E43595F504152537E
:100AF000455200434153455F4C494748545F425279
:100B0000494748544E45535300544F47474C455F5F
:100B10004C494748545300534F4654574152455F40
:100B2000504F574552004255494C445F504552433F
:100B3000454E54004C4556454C494E475F44415440
:100B400041005A5F50524F42450052554E4F555446
:100B5000004155544F4C4556454C005052494E5457
:100B60005F4A4F420050524F475245535300415540
:100B7000544F5245504F52545F54454D5000564FBC
:100B80004C554D45545249430042494E4152595FDC
:100B900046494C455F5452414E53464552005345D9
:100BA0005249414C5F584F4E5F584F4646004649A8
:100BB000524D574152455F4E414D453A4D61726C21
:100BC000696E20322E302E372E325F53524B5F34F7
:100BD00020284D61792033302032303234203139B1
:100BE0003A35363A34372920534F555243455F43FF
:100BF0004F44455F55524C3A68747470733A2F2FC6
:100C00006769746875622E636F6D2F4D61726C69D0
:100C10006E4669726D776172652F4D61726C696E97
:100C20002050524F544F434F4C5F56455253494FFB
:100C30004E3A312E30204D414348494E455F54597C
:100C400050453A3344205072696E7465722045589D
:100C50005452554445525F434F554E543A312055F6
:100C60005549443A63656465326132662D343161B9
:100C7000322D343734382D396231322D63353563B6
:100C800036326633363766660A002F2F2000436CF3
:100C900069636B20746F20526573756D652E2E2EFF
:100CA000004D31343520533C696E6465783E206FC9
:100CB0007574206F662072616E67652028302D3153
:100CC000290A0047322F4733206261642070617225
:100CD000616D65746572730A00536C6565702E2EC4
:100CE0002E00220A00556E6B6E6F776E20636F6D5B
:100CF0006D616E643A202200205A3A200020593A51
:100D0000200042656420583A200020746F20003F84
:100D10005A206F7574206F662072616E6765202897
:100D2000003F59206F7574206F662072616E676591
:100D300020282D003F58206F7574206F6620726147
:100D40006E676520282D0050726F6265204F6666C1
:100D5000736574205800656E7175657565696E6799
:100D60002022006F6B00526573656E643A20004D5F
:100D7000343130004D3131322053687574646F77EF
:100D80006E004D313132004D313038004E6F20430E
:100D90006865636B73756D2077697468206C696E24
:100DA00065206E756D6265722C204C617374204CE9
:100DB000696E653A2000636865636B73756D206DBD
:100DC00069736D617463682C204C617374204C6985
:100DD0006E653A20004C696E65204E756D626572D5
:100DE000206973206E6F74204C617374204C696E9F
:100DF00065204E756D6265722B312C204C617374C9
:100E0000204C696E653A20004D313130005344204A
:100E100072656164206572726F720A00446F6E655C
:100E200020736176696E672066696C652E0A004DD5
:100E30003239004D383400446F6E65207072696E2F
:100E400074696E672066696C650A004D3737004D1E
:100E50003331004E6F206D656469610A00456E6430
:100E60002066696C65206C6973740A004265676965
:100E70006E2066696C65206C6973740A0043757234
:100E800072656E742066696C653A20002569792068
:100E9000256964202569682025696D20256973000E
:100EA0005072696E742074696D653A200042656401
:100EB00020436F6F6C696E672E2E2E004265642092
:100EC00048656174696E672E2E2E0050494420419A
:100ED00075746F74756E6500504944204175746F68
:100EE00074756E65206661696C6564212042616479
:100EF000206578747275646572206E756D626572B6
:100F00000A005049442044656275672000256875D1
:100F10003A253032687500256875642025303268BE
:100F2000753A2530326875002020202020202000CE
:100F30004572723A207574663820666F6E74206E42
:100F40006F7420696E697469616C697A65642E00DA
:100F500068747470733A2F2F6D61726C696E667766
:100F60002E6F726700322E302E372E325F53524B67
:100F70005F3400506C656173652052657365740061
:100F80005052494E5445522048414C544544001259
:100F9000050D050605FF04F1041FE02010201020B8
:100FA0001010201020201020103030084004800342
:100FB000001FE03FF03FF03FF01FE01FE03FF03F39
:100FC000F03FF00FC0078003003FFFF038007030A3
:100FD000FC3020FC102078102030102C00D02E3156
:100FE000D02F7BD02F7BD02E31D02C00D0203010B2
:100FF00020781020FC1030FC303800703FFFF03FAC
:10100000FFF03800703186302387102787902F87B4
:10101000D02F03D0203010207810207810203010EE
:101020002F03D02F87D02787902387103186303821
:1010300000703FFFF01FFFF81FFFF8041040020888
:1010400020020820041040082080104100104100B8
:101050000820800410400000001FFFF81FFFF80167
:10106000FFFFFFFFFFFFFFFFFFFFFFFFFF0FFFFF80
:10107000FFFFFFFFFFFFFFFFFFFFFF1E000000005D
:1010800000000000000007FFFF3800000000000023
:101090000000000003FFFF700000000000000000DF
:1010A000000001FFFF6000000000000000000000E1
:1010B00000FFFF6000000000000000000000007F53
:1010C000FFC000000000000000007800003FFFC0EB
:1010D0000FC0FC00000000007818001FFFC03FE1B7
:1010E000FF0000000000783C000FFFC07FF3FF808E
:1010F00000000000783C0007FFC0FFFFFFC00000B9
:101100000000783C0003FFC1F87F87E0000000008A
:1011100078000001FFC1F03F03E00000000078000C
:101120000000FFC1E01E01E01F0003E0783C03F077
:101130007FC1E01E01E07FC00FF8783C07FC3FC193
:10114000E01E01E1FFE01FFC783C0FFE1FC1E01E26
:1011500001E3FFF03FFE783C1FFE0FC1E01E01E3FC
:10116000F3F83F3E783C3F3F07C1E01E01E7E0FC5B
:101170007C1F783C3E1F07C1E01E01E7C07C7C0F4E
:10118000783C3C0F03C1E01E01E7807C780F783C7F
:101190003C0F03C1E01E01E7803C7800783C3C0F27
:1011A00003C1E01E01E7803C7800783C3C0F03C19E
:1011B000E01E01E7803C7800783C3C0F03C1E01E54
:1011C00001E7C03C7800783C3C0F03C1E01E01E31E
:1011D000E03C78007C3C3C0F03C1E01E01E3FF3F94
:1011E000F8007FBC3C0F03C1E01E01E1FF3FF800A7
:1011F0003FBFFC0F03C1E01E01E0FF3FF8001FBF2F
:10120000FC0F03C1E01E01E07F3FF8000FBFFC0FA1
:101210000360000000000000000000000000076004
:101220000000000000000000000000000670000048
:10123000000000000000000000000E380000000068
:1012400000000000000000001C1E00000000000064
:10125000000000000000780FFFFFFFFFFFFFFFFF0F
:10126000FFFFFFFFF001FFFFFFFFFFFFFFFFFFFF9B
:10127000FFFF80000C0F00FE07022503BB017FFE6D
:1012800008FE08FE05080806000040F0C888889897
:101290007810050808060000C0F88888888888F853
:1012A0000505050600012030F83020050808060075
:1012B000002070F820202020E00509090600FF200A
:1012C00070A8A8B888887020070505070001D86CA9
:1012D000366CD80509090600FFF8A8888888888830
:1012E000A8F8050A0A0600FE205050505088A8A809
:1012F000887003030306000340A040FFFFFFFFFFC9
:10130000FFFFFFFFFFFFFFFFFFFFFFFFFFFFFFFFED
:10131000FF0000000605FF0107070602008080802D
:1013200080800080030303060105A0A0A005060637
:1013300006000050F85050F8500509090600FF203B
:1013400070A8A07028A87020050707060000C8C86C
:10135000102040989805070706000040A0A040A86C
:1013600090680103030602058080800309090601D5
:10137000FF2040408080804040200309090601FF93
:1013800080404020202040408005070706000020C4
:10139000A8702070A8200505050600012020F8206F
:1013A000200203030601FFC040800501010600037F
:1013B000F8020202060100C0C00507070600000887
:1013C000101020404080050707060000708898A88C
:1013D000C8887003070706010040C040404040E055
:1013E000050707060000708808102040F805070769
:1013F000060000F80810300888700507070600008E
:1014000010305090F81010050707060000F880F023
:1014100008088870050707060000304080F08888BB
:1014200070050707060000F80810102020200507A7
:101430000706000070888870888870050707060016
:101440000070888878081060020505060100C0C099
:1014500000C0C00206060601FFC0C000C0408003F5
:101460000505060101204080402005030306000217
:10147000F800F803050506010180402040800507BB
:1014800007060000708810202000200507070600CE
:10149000007088B8A8B8807005070706000070883B
:1014A00088F8888888050707060000F048487048D3
:1014B00048F0050707060000708880808088700566
:1014C0000707060000F04848484848F005070706A7
:1014D0000000F88080F08080F8050707060000F81B
:1014E0008080F0808080050707060000708880807B
:1014F000988870050707060000888888F88888881B
:10150000030707060100E04040404040E0050707B0
:101510000600003810101010906005070706000044
:101520008890A0C0A09088050707060000808080F2
:10153000808080F805070706000088D8A88888887A
:10154000880507070600008888C8A89888880507C6
:1015500007060000708888888888700507070600DD
:1015600000F08888F08080800507070600007088FA
:101570008888A89068050707060000F08888F0A012
:10158000908805070706000070888070088870053D
:101590000707060000F82020202020200507070666
:1015A00000008888888888887005070706000088FA
:1015B000888888505020050707060000888888889A
:1015C000A8A8500507070600008888502050888882
:1015D00005070706000088885020202020050707FF
:1015E000060000F80810204080F80309090601FFF2
:1015F000E080808080808080E00507070600008012
:101600004040201010080309090601FFE0202020B7
:1016100020202020E0050303060005205088050156
:10162000010600FEF80303030601058040200505BE
:101630000506000070087888780507070600008016
:1016400080F0888888F00505050600007080808895
:10165000700507070600000808788888887805055F
:10166000050600007088F08070050707060000304E
:101670004840E04040400507070600FE7088888823
:101680007808700507070600008080F08888888841
:101690000307070601004000C0404040E00409097C
:1016A0000601FE10003010101010906005070706AC
:1016B000000080808890E09088030707060100C042
:1016C0004040404040E0050505060000D0A8A8A81D
:1016D000A8050505060000B0C88888880505050628
:1016E000000070888888700507070600FEF088886B
:1016F00088F080800507070600FE788888887808CB
:1017000008050505060000B0C880808005050506AF
:10171000000078807008F00507070600002020F818
:10172000202020180505050600008888889868058F
:10173000050506000088888850200505050600007C
:101740008888A8A850050505060000885020508804
:101750000507070600FE888888502040800505059B
:10176000060000F8102040F80309090601FF204098
:10177000404080404040200109090602FF808080EF
:101780008080808080800309090601FF80404040FE
:10179000204040408005030306000248A890FFDB7C
:1017A0000FC93F45BCDA3F8FB30240FCF0274056DB
:1017B000946140FE4B9B4084A5D840E023184134FF
:1017C0006A5641E859974164DBD5416E271742B408
:1017D000B75542CE1A9742C8AED542B5885A43D4BF
:1017E0000684BFA65FA7BF7443E0BF10B11AC01C38
:1017F0002C58C0E8F697C0B849D6C04E4E17C12441
:10180000D355C1802497C1A0B5D5C1121A17C244BF
:10181000AE55C2781797C26CACD5C267885AC30060
:1018200000FA440000FA440000A0400000C8410053
:1018300000A0420000A0420000C8430000C842B817
:101840000B0000B80B00006400000010270000240B
:10185000F4D43050C38E20C2A24017828B70111274
:101860007A910D816CD90AA861E108C758660761B1
:101870005143061E4B5D05C145A7041A41110409D9
:101880003D9803713931034036DB0265339102D450
:10189000305402802E1D02632CEE01752AC501B062
:1018A00028A001102781018F2564012B244B01E022
:1018B000223401AC211F018D200D01801FFC00840A
:1018C0001EED00971DDF00B81CD200E61BC60020ED
:1018D0001BBC00641AB200B219A8000A19A0006A61
:1018E000189900D117910040178B00B5168400316C
:1018F000167E00B31579003A157300C7146F0058AF
:10190000146A00EE1366008813630025135E00C797
:10191000125B006C12570015125400C11151007077
:10192000114F0021114B00D61049008D1047004681
:1019300010440002104200C00F4000800F3E0042E1
:101940000F3C00060F3B00CB0E3800930E37005CB7
:101950000E3500270E3400F30D3200C10D3100901A
:101960000D3000600D2E00320D2D00050D2C00D91C
:101970000C2B00AE0C2900850C29005C0C270035CF
:101980000C27000E0C2600E80B2400C40B2400A03A
:101990000B23007D0B23005A0B2100390B2100186B
:1019A0000B2000F80A1F00D90A1E00BB0A1E009D6A
:1019B0000A1D00800A1D00630A1C00470A1B002C38
:1019C0000A1B00110A1A00F7091A00DD091900C4E0
:1019D000091900AB091900920917007B0918006367
:1019E0000917004C09160036091600200916000ACE
:1019F000091500F5081500E0081400CC081400B81B
:101A0000081400A4081400900813007D0812006B4D
:101A10000813005808120046081200340811002369
:101A20000811001208110001081100F0071000E071
:101A3000071000D0071000C0071000B0070F00A16A
:101A400007100091070E0083070F0074070F006551
:101A5000070E0057070E0049070E003B070D002E2A
:101A6000070E0020070D0013070D0006070D00F9F3
:101A7000060C00ED060D00E0060C00D4060C00C8B4
:101A8000060C00BC060C00B0060C00A4060B009966
:101A9000060C008D060B0082060B0077060B006C0F
:101AA000060B0061060A0057060B004C060A0042AE
:101AB000060A0038060A002E060A0024060A001A42
:101AC000060A001006090007060A00FD050900F4D1
:101AD000050900EB050900E2050900D9050900D058
:101AE000050900C7050900BE050900B5050800ADD8
:101AF000050800A50509009C050800940508008C50
:101B0000050800840508007C050800740508006CC1
:101B1000050700650508005D050700560508004E2D
:101B20000507004705070040050800380507003194
:101B30000507002A050700230507001C05060016F7
:101B40000507000F0507000805060002050700FB52
:101B5000040600F5040700EE040600E8040600E2AF
:101B6000040700DB040600D5040600CF040600C904
:101B7000040600C3040600BD040600B7040600B155
:101B8000040500AC040600A6040600A00405009BA2
:101B900004060095040500900406008A04050085EB
:101BA000040500800406007A040500750405007031
:101BB0000405006B04050066040500610405005C73
:101BC00004050057040500520405004D04050048B3
:101BD000040500430405003E0404003A04050035F2
:101BE000040500300404002C04050027040400232D
:101BF0000405001E0404001A040400160405001164
:101C00000404000D04040009040500040404000099
:101C1000040400FC030400F8030400F4030400F0CF
:101C2000030400EC030400E8030400E4030400E000
:101C3000030400DC030400D8030400D4030400D030
:101C4000030400CC030400C8030300C503030024FD
:101C5000F404D9201BC40C5C0E9804C4095F02650F
:101C6000077101F405F900FB04B30048048700C1C3
:101C70000369005803550003034500BE023A00847F
:101C800002310053022A002902250004022000E448
:101C9000011C00C8011900AF01170098011400844D
:101CA000011300710110006101100051010E004389
:101CB000010D0036010B002B010B0020010B00155C
:101CC0000109000C01090003010800FB000800F3F2
:101CD000000800EB000700E4000600DE000600D864
:101CE000000600D2000600CC000500C7000500C2B7
:101CF000000500BD000400B9000400B5000400B1F7
:101D0000000400AD000400A9000400A5000300A227
:101D10000003009F0004009B00030098000300954F
:101D200000020093000300900003008D0002008B6E
:101D30000003008800020086000200840003008186
:101D40000002007F0002007D0002007B000200799B
:101D500000020077000100760002007400020072A9
:101D6000000100710002006F0002006D0001006CB4
:101D70000002006A000100690002006700010066BD
:101D800000010065000100640002006200010061C2
:101D9000000100600001005F0002005D0001005CC6
:101DA0000001005B0001005A0001005900010058C9
:101DB00000010057000100560001005500010054C9
:101DC00000010053000000530001005200010051C7
:101DD000000100500001004F0001004E0000004EC5
:101DE0000001004D0001004C0001004B0000004BC1
:101DF0000001004A000100490001004800000048BD
:101E000000010047000100460000004600010045B7
:101E100000000045000100440001004300000043B1
:101E200000010042000000420001004100000041AA
:101E3000000100400001003F0000003F0001003EA3
:101E40000000003E0001003D0000003D0001003C9C
:101E50000000003C0000003C0001003B0000003B93
:101E60000001003A0000003A00010039000000398A
:101E70000001003800000038000000380001003781
:101E80000000003700010036000000360000003678
:101E9000000100350000003500000035000100346D
:101EA0000000003400000034000100330000003363
:101EB0000000003300010032000000320000003258
:101EC000000100310000003100000031000100304D
:101ED00000000030000000300001002F0000002F43
:101EE0000000002F0000002F0001002E0000002E37
:101EF0000000002E0001002D0000002D0000002D2C
:101F00000000002D0001002C0000002C0000002C1F
:101F10000000002C0001002B0000002B0000002B13
:101F20000000002B0001002A0000002A0000002A07
:101F30000000002A000100290000002900000029FB
:101F400000000029000000290001002800000028EE
:101F500000000028000000280000002800010027E1
:101F600000000027000000270000002700000027D5
:101F700000010026000000260000002600000026C8
:101F800000000026000100250000002500000025BB
:101F900000000025000000250000002500010024AD
:101FA00000000024000000240000002400000024A1
:101FB0000001002300000023000000230000002394
:101FC0000000002300000023000000230001002285
:101FD0000000002200000022000000220000002279
:101FE000000000220001002100000021000000216B
:101FF000000000210000002100000021000000215D
:10200000000100200000002000000020000000204F
:102010000000002000000020000000200000002040
:102020000001001F0000001F0000001F0000001F33
:102030000000001F0000001F0000001F0001001E24
:102040000000001E0000001E0000001E0000000432
:102050003700001E290000511B000058100000101E
:10206000090000CC0400007802000041010000706B
:10207000012C0190012701B0012201C0011D01F0D6
:102080000118011002130130020E016002090190D3
:10209000020401C002FF000003FA004003F50080C3
:1020A00003F000D003EB002004E6007004E100E040
:1020B00004DC004005D700C005D2004006CD00D0AA
:1020C00006C8008007C3003008BE00F008B900C091
:1020D00009B400B00AAF00B00BAA00D00CA50000F4
:1020E0000EA000500F9B00C01096005012910000EF
:1020F000148C00C0158700B0178200B0197D00D085
:102100001B7800001E730040206E0090226900F0D2
:1021100024640040275F0090295A00E02B550010EE
:102120002E500020304B0010324600E0334100902A
:10213000353C001037370070383200A0392D00B020
:102140003A2800A03B2300603C1E00103D1900907F
:102150003D1400103E0F00703E0A00C03E05000016
:102160003F0000403FFBFF803FF6FFC03FF1FF0014
:1021700009121B242D363F48415A536C657E77194E
:10218000100B023D342F265158434A757C676E323E
:102190003B2029161F040D7A7368615E574C452B4E
:1021A0002239300F061D14636A7178474E555C64FE
:1021B0006D767F4049525B2C253E3708011A137D0E
:1021C000746F6659504B42353C272E1118030A563E
:1021D0005F444D727B60691E170C053A3328214F0E
:1021E000465D546B627970070E151C232A31384105
:1021F00048535A656C777E09001B122D243F3658D0
:10220000514A437C756E671019020B343D262F73BB
:102210007A6168575E454C3B3229201F160D046ACF
:102220006378714E475C55222B3039060F141D25FB
:102230002C373E0108131A6D647F7649405B523C8F
:10224000352E2718110A03747D666F5059424B17BB
:102250001E050C333A21285F564D447B7269600E8F
:10226000071C152A233831464F545D626B70790084
:10227000002110422063308440A550C660E77008FA
:102280008129914AA16BB18CC1ADD1CEE1EFF13181
:1022900012100273325222B5529442F772D662394A
:1022A0009318837BB35AA3BDD39CC3FFF3DEE362D1
:1022B00024433420040114E664C774A44485546A9A
:1022C000A54BB528850995EEE5CFF5ACC58DD55361
:1022D00036722611163006D776F6669556B4465BEA
:1022E000B77AA719973887DFF7FEE79DD7BCC7C431
:1022F00048E5588668A7784008611802282338CC3A
:10230000C9EDD98EE9AFF9488969990AA92BB9F5C0
:102310005AD44AB77A966A711A500A333A122AFD89
:10232000DBDCCBBFFB9EEB799B588B3BBB1AABA690
:102330006C877CE44CC55C222C033C600C411CAED9
:10234000ED8FFDECCDCDDD2AAD0BBD688D499D97A0
:102350007EB66ED55EF44E133E322E511E700E9F29
:10236000FFBEEFDDDFFCCF1BBF3AAF599F788F88F0
:1023700091A981CAB1EBA10CD12DC14EF16FE180C1
:1023800010A100C230E3200450254046706760B9B8
:10239000839893FBA3DAB33DC31CD37FE35EF3B111
:1023A000029012F322D2323542145277625672EA08
:1023B000B5CBA5A89589856EF54FE52CD50DC5E261
:1023C00034C324A01481046674476424540544DB98
:1023D000A7FAB79987B8975FE77EF71DC73CD7D3B1
:1023E00026F2369106B01657667676154634564C68
:1023F000D96DC90EF92FE9C899E9898AB9ABA94401
:1024000058654806782768C018E1088238A3287DF7
:10241000CB5CDB3FEB1EFBF98BD89BBBAB9ABB7550
:102420004A545A376A167AF10AD01AB32A923A2EC7
:10243000FD0FED6CDD4DCDAABD8BADE89DC98D26A0
:102440007C076C645C454CA23C832CE01CC10C1FD7
:10245000EF3EFF5DCF7CDF9BAFBABFD98FF89F17F0
:102460006E367E554E745E932EB23ED10EF01E0037
:10247000002100240027002A002D00300033000135
:10248000010000040107010A0100002200250028C4
:10249000002B002E0031003400020100000501086D
:1024A000010B0105050505070508080808020202D9
:1024B000020A0A08080404040401010101010101DF
:1024C000010303030303030303040707070C0C0CB6
:1024D0000C0C0C0C0C02020202060606060606068E
:1024E000060B0B0B0B0B0B0B0B010210202008082B
:1024F0001020401020408002010201080402010166
:10250000020408102040808040201008040201804E
:1025100004020180402010080402010804020101A5
:1025200002040810204080010204081020408000AE
:10253000000A0B02090C0D0E08070304010000003D
:10254000000000000000000000000000000000008B
:102550000000000000000000000000121110000048
:10256000000000000000000000000000000000006B
:10257000000000000020746F6F206C6F6E67206594
:102580007874727573696F6E2070726576656E749B
:1025900065640A0020636F6C6420657874727573DB
:1025A000696F6E2070726576656E7465640A00509E
:1025B000726F62696E67204661696C65640A0050DB
:1025C000726F62696E67204661696C65640045459B
:1025D00050524F4D206461746173697A6520657251
:1025E000726F722E0A0053657474696E677320539C
:1025F000746F726564002062797465733B20637246
:1026000063200053657474696E67732053746F722E
:1026100065642028004E6F20454550524F4D2E0ACC
:10262000002073746F7265642073657474696E67DB
:1026300073207265747269657665642028002028AD
:1026400063616C63756C6174656429210A002021E3
:102650003D2000454550524F4D20435243206D6967
:10266000736D61746368202D202873746F726564C4
:102670002920002053697A653A2000496E64657804
:102680003A200044494749504F5453204C6F6164ED
:1026900065640A0044494749504F5453204C6F61C8
:1026A00064696E670A00204D61726C696E3D563830
:1026B00032290A00454550524F4D207665727369A4
:1026C0006F6E206D69736D61746368202845455095
:1026D000524F4D3D0048617264636F6465642044ED
:1026E000656661756C742053657474696E677320D8
:1026F0004C6F616465640A003B200020204D383532
:10270000312058005A2D50726F6265204F666673F3
:1027100065740020440020204D333031205000509B
:1027200049442073657474696E67733A00204600EB
:1027300020480020204D3134352053004D61746510
:102740007269616C20686561747570207061726176
:102750006D65746572733A00204A00202047323953
:10276000205720490020204D34323020530041753D
:10277000746F20426564204C6576656C696E673ABB
:102780000020204D323036205800486F6D65206F94
:1027900066667365743A0020204D32303520420061
:1027A000416476616E6365643A20423C6D696E5F98
:1027B0007365676D656E745F74696D655F75733E93
:1027C00020533C6D696E5F66656564726174653E39
:1027D00020543C6D696E5F74726176656C5F6665EE
:1027E0006564726174653E204A3C6A756E635F641D
:1027F00065763E0020540020204D323034205000B9
:10280000416363656C65726174696F6E2028756ED3
:102810006974732F7332293A20503C7072696E7458
:102820005F616363656C3E20523C726574726163E4
:10283000745F616363656C3E20543C7472617665BD
:102840006C5F616363656C3E0020204D3230312047
:1028500058004D6178696D756D20416363656C65E5
:10286000726174696F6E2028756E6974732F73328C
:10287000293A0020204D3230332058004D617869CC
:102880006D756D2066656564726174657320287569
:102890006E6974732F73293A0053746570732070D6
:1028A000657220756E69743A0020204D32303020F8
:1028B00053002044697361626C65640A0046696C68
:1028C000616D656E742073657474696E67733A0028
:1028D00020204D3134392043203B20556E697473DC
:1028E00020696E2043656C736975730A0020286D3A
:1028F0006D29002020473231202020203B20556EBA
:1029000069747320696E206D6D00205A3A00205959
:102910003A0020436F756E7420583A004B642000D3
:102920004B6920004B70200023646566696E65204A
:1029300044454641554C545F00504944204175740C
:102940006F74756E652066696E69736865642120B1
:1029500050757420746865206C617374204B702C02
:10296000204B6920616E64204B6420636F6E73742A
:10297000616E74732066726F6D2062656C6F772074
:10298000696E746F20436F6E6669677572617469F2
:102990006F6E2E680A00504944204175746F74753B
:1029A0006E65206661696C6564212074696D656F70
:1029B00075740A00504944204175746F74756E65D2
:1029C000206661696C6564212054656D7065726173
:1029D0007475726520746F6F20686967680A0020DB
:1029E0004B643A2000204B693A2000204B703A207B
:1029F000000A20436C617373696320504944200AC4
:102A0000000A204E6F206F76657273686F6F740ACC
:102A1000002054753A2000204B753A2000206D614B
:102A2000783A2000206D696E3A200020643A200038
:102A300020626961733A2000504944204175746FE7
:102A400074756E652073746172740A00453100629A
:102A50006564002C2073797374656D2073746F70D6
:102A600070656421204865617465725F49443A204D
:102A7000004572723A204D415854454D50004D4129
:102A80005854454D502074726967676572656400DB
:102A90004572723A204D494E54454D50004D494EB5
:102AA00054454D50207472696767657265640020F3
:102AB000645465726D200020695465726D20002099
:102AC000705465726D2000204F757470757420000D
:102AD0003A20496E7075742000205049445F444587
:102AE000425547200048656174696E6720466169F8
:102AF0006C65640048656174696E67206661696C25
:102B0000656400202D20496E76616C6964206578CB
:102B1000747275646572206E756D62657220210A2B
:102B200000544845524D414C2052554E4157415951
:102B300000546865726D616C2052756E61776179C1
:102B400000202F002042403A0020403A0045202536
:102B5000530020573A007C3C3E5E2B3D3F2F5B5D8F
:102B60003B2C2A225C0043616E6E6F74206F70658F
:102B70006E207375626469722000286E6F2066692A
:102B80006C652900534420496E6974204661696C64
:102B90000053442063617264206F6B0A006F70659C
:102BA0006E526F6F74206661696C65640A00766F9F
:102BB0006C756D652E696E6974206661696C6564FB
:102BC0000A004E6F20534420636172640A004D3244
:102BD00034004D3233202573006F70656E206661BE
:102BE000696C65642C2046696C653A2000667265E4
:102BF000736800646F696E67004E6F7720004669E6
:102C00006C652073656C65637465640A0046696C65
:102C100065206F70656E65643A2000454E44205310
:102C20005542524F5554494E450A002220706F7349
:102C3000002220706172656E743A22005355425230
:102C40004F5554494E452043414C4C2074617267A6
:102C500065743A220053756263616C6C204F76652F
:102C600072666C6F77004578636565646564206D96
:102C7000617820535542524F5554494E4520646562
:102C80007074683A310A0057726974696E6720740B
:102C90006F2066696C653A200044656C6574696FE5
:102CA0006E206661696C65642C2046696C653A200B
:102CB0000046696C652064656C657465643A004E15
:102CC0006F74205344207072696E74696E670A00D5
:102CD0005344207072696E74696E672062797465FE
:102CE00020006572726F722077726974696E672056
:102CF000746F2066696C650A006175746F25632EB8
:102D0000670043616E6E6F7420656E746572207328
:102D100075626469723A20000041425300504C4190
:102D2000005072696E742050617573656400456E61
:102D3000636C6F73757265004D6F76696E672E2ECA
:102D40002E0046696C2E204469612E004520696E74
:102D5000206D6DC2B3002008204661637400200816
:102D6000204D6178002008204D696E004F66660096
:102D70004F6E004175746F74656D700056547261CA
:102D800076204D696E00566D696E00566D61782033
:102D90004500566D6178205A00566D6178205900C3
:102DA000566D6178205800416D6178204500416D75
:102DB0006178205A00416D6178205900416D617839
:102DC000205800412D54726176656C00412D52658A
:102DD000747261637400416363656C0050726F626A
:102DE00065205A204F66667365740050726F626585
:102DF0002059204F66667365740050726F626520BB
:102E000058204F666673657400452073746570734F
:102E10002F6D6D005A2053746570732F6D6D0059BE
:102E20002053746570732F6D6D0058205374657056
:102E3000732F6D6D00416476616E63656420536528
:102E40007474696E6773003F0043616E63656C0064
:102E5000496E6974004D34323800496E6974696195
:102E60006C697A6520454550524F4D0046696C614A
:102E70006D656E740054656D706572617475726510
:102E80000050726F6265204F666673657473004A06
:102E9000756E6374696F6E20446576004163636587
:102EA0006C65726174696F6E0056656C6F636974EE
:102EB000790053657420486F6D65204F66667365B1
:102EC000747300436F6E66696775726174696F6EC3
:102ED0000053572D4D6F64650053746F7700446540
:102EE000706C6F790053656C662D54657374004E79
:102EF0006F7A7A6C650046616E2053706565640078
:102F0000526573746F72652044656661756C747385
:102F1000004C6F61642053657474696E677300536D
:102F2000746F72652053657474696E6773005072B4
:102F30006568656174202420436F6E6600424C54BE
:102F40006F756368004D61696E004261636B005389
:102F5000746F70004E6F204D656469610050726936
:102F60006E742066726F6D204D6564696100436800
:102F7000616E6765204D65646961004D3231004DB9
:102F80006F74696F6E00526573756D65205072695C
:102F90006E740054756E650053746F7020507269C2
:102FA0006E74005061757365205072696E740049CB
:102FB0006E666F2053637265656E00537461727440
:102FC000205072696E7400022E2E004D6F766520BF
:102FD00025736D6D004D6F766520302E316D6D005F
:102FE0004D6F766520316D6D004D6F766520313007
:102FF0006D6D00486F74656E6420746F6F20636F31
:103000006C640050726F6365656400457874727516
:10301000646572004D6F7665205A004D6F766520AD
:1030200059004D6F7665205800536F667420456EC9
:103030006473746F70730044697361626C652053CC
:1030400074657070657273004661646520486569D7
:10305000676874004C6576656C2042656400473291
:10306000380A473239004175746F20486F6D65002A
:10307000473238004D6F7665204178697300507291
:10308000656865617420242042656400507265683B
:10309000656174202420456E6400436F6F6C646F1B
:1030A000776E0050726568656174202400466C6F0D
:1030B000770025533A202553003344205072696E1F
:1030C0007465722052656164792E005072696E7465
:1030D000696E672E2E2E005072696E742041626FE9
:1030E00072746564004D32350050617573696E67A6
:1030F0002E2E2E004D656469612052656D6F7665D8
:1031000064004D6564696120496E7365727465641D
:1031100000454550524F4D2056657273696F6E20C1
:103120004572726F7200454550524F4D20496E6492
:103130006578204572726F7200454550524F4D20A0
:10314000435243204572726F720049676E6F726519
:1031500000486F6D696E67204661696C6564002583
:103160005320256320256320256320256300656E99
:103170006473746F7073206869743A20006F7065AF
:103180006E00545249474745524544007A5F6D6985
:103190006E00795F6D696E00785F6D696E005265D3
:1031A000706F7274696E6720656E6473746F7020DF
:1031B0007374617475730A0020453A00486F6D6539
:1031C0002025732573257320466972737400576137
:1031D000726E696E673A20486F6D696E672042753E
:1031E0006D702044697669736F72203C20310A004B
:1031F0001D2D192D00003443000007430000C84274
:103200000000C8C100000CC200000000020204005F
:1032100000484200004842000080400000C8C10051
:10322000000CC2000000000000A0400000A0400010
:1032300000004000004D4300002A430000C842FF48
:10324000FFFF57BE21D011241FBECFEFD1E2DEBF5A
:10325000CDBF00E00CBF13E0A0E0B2E0E6EBF4EE7F
:1032600002E00BBF02C007900D92A634B107D9F758
:1032700024E1A6E4B3E001C01D92A939B207E1F749
:1032800019E1C2E2D9E100E006C021970109802FCF
:10329000FE010F94A66EC132D10780E00807A9F79E
:1032A0000E9490CD0D9449720C940000089590E016
:1032B00080E00895FC01718360835383428390E032
:1032C00080E00895AB0121E02093BF07BC018BEBA8
:1032D00097E00E945A190895DC01FB012D913C9161
:1032E00011978081918128173907A0F082179307E1
:1032F000A0F013969C9113978281981788F01296EC
:103300009C918381891718F090E080E0089581E016
:1033100090E008958FEF9FEF089581E090E0089589
:103320008FEF9FEF089580918A078F7E8062809350
:103330008A07089580918A078F7D806180938A072C
:103340000895CF92DF92EF92FF9281548A3108F074
:1033500059C0282F30E04091DB0C5091DC0C60917B
:10336000DD0C7091DE0C04C07695679557954795F6
:103370008A95D2F781E06A017B0191E0C922DD24C0
:10338000EE24FF2440FF80E0CD28CE28CF28D9F1BD
:103390002F53334FD901EC91EE2379F12091BF0CDB
:1033A0003091C00CE20FF32FF11D908120ED290F19
:1033B0002A3040F09E3259F09D3271F09B3261F01C
:1033C000F0E0E0E0F093E00CE093DF0C1CC0218122
:1033D00020532A3088F7F6CF918120ED290F2A302B
:1033E00088F39E3219F0F0E0E0E0ECCF9281905348
:1033F0009A3040F3F0E0E0E0E5CF1092E00C10925C
:10340000DF0C01C080E0FF90EF90DF90CF90089537
:103410008091030E8E7F8093030E08959091040691
:10342000E92FF0E0E856FA4F80839F5F90930406FF
:10343000943010F010920406809186078F5F80937D
:103440008607089510928607109204061092850749
:10345000089580E0843040F4E82FF0E0E856FA4F19
:1034600091E090838F5FF6CF08954F925F926F92B5
:103470007F928F929F92AF92BF92CF92DF92EF9204
:10348000FF92CF93DF93CDB7DEB72C970FB6F894AA
:10349000DEBF0FBECDBF5C01DB014D905D906D9036
:1034A0007C908091070D9091080DA091090DB0912D
:1034B0000A0D8D839E83AF83B8879C01AD01C30144
:1034C000B2010F94C06E69837A838B839C83D5018C
:1034D0008D909D90AD90BC90E3E0FDE0C080D180E8
:1034E000E280F380A7019601C501B4010F94C06E7C
:1034F00069877A878B879C872AE130E04CE052EC21
:1035000069817A818B819C810F94217188230CF4CD
:10351000DEC027E030E047E053E469817A818B81A7
:103520009C810F94D76718160CF4E7C024E330E0B1
:1035300048EC51EC69857A858B859C850F942171C7
:1035400088230CF4DCC027E030E044E353E46985D1
:103550007A858B859C850F94D76718160CF4D1C09B
:1035600020E030E048EC51E4C701B6010F94C06E92
:1035700069837A838B839C8320E030E040E251E4CE
:103580000F94D767882344F480E090E0A0E2B1E490
:1035900089839A83AB83BC8327E137EB41ED58E302
:1035A00069817A818B819C810F94C06E9B01AC01F3
:1035B000C501B4010F94217188230CF4A4C020E04C
:1035C00030E044E353E4C701B6010F94C16E6B01D0
:1035D0007C0120E030E04AE253E40F942171181698
:1035E00044F40F2EC12CD12CFAE2EF2EF3E4FF2E7F
:1035F000F02D27E137EB41ED58E3C701B6010F94F9
:10360000C16E9B01AC01C501B4010F94D7671816B8
:103610000CF47BC020E030E04CE052E46D817E8110
:103620008F8198850F94C06E6B017C0120E030E0A3
:1036300040E251E40F94D767882344F40F2EC12C45
:10364000D12CF0E2EF2EF1E4FF2EF02D27E137EB45
:1036500041ED58E3C701B6010F94C06E9B01AC0168
:10366000C301B2010F94217188230CF450C020E0F3
:1036700030E047E053E46D817E818F8198850F941F
:10368000C16E6B017C0120E030E04AEF52E40F9400
:103690002171181644F40F2EC12CD12CFAEFEF2E05
:1036A000F2E4FF2EF02D27E137EB41ED58E3C7019F
:1036B000B6010F94C16E9B01AC01C301B2010F941E
:1036C000D767181614F480E003C081E001C080E0E1
:1036D0002C960FB6F894DEBF0FBECDBFDF91CF9111
:1036E000FF90EF90DF90CF90BF90AF909F908F9022
:1036F0007F906F905F904F90089580E0E9CF80E0D9
:10370000E7CF80E0E5CF80E0E3CF80E0E1CF80E06D
:10371000DFCF10928907109288078FE380935705B7
:1037200010925605109255051092DB0C1092DC0C8D
:103730001092DD0C1092DE0C0895109296131092E8
:103740005A02089590E0FC01EE0FFF1FE80FF91FE9
:10375000E60FF11DEE0FFF1FEE0FFF1FE55EF24FAC
:10376000608171818281938108952F923F924F925F
:103770005F926F927F928F929F92AF92BF92CF9201
:10378000DF92EF92FF920F931F93CF93DF93CDB70A
:10379000DEB72C970FB6F894DEBF0FBECDBFF82E64
:1037A000E62ED42EC22E282F30E03C872B87062F02
:1037B00010E0F901EE0FFF1FE20FF31FE00FF11F02
:1037C000EE0FFF1FEE0FFF1FE55EF24F608171816C
:1037D000828193819B01AC010F94B371811119C057
:1037E0002C960FB6F894DEBF0FBECDBFDF91CF9100
:1037F0001F910F91FF90EF90DF90CF90BF90AF900F
:103800009F908F907F906F905F904F903F902F9000
:103810000895FD0C6C2D6E0D8D2D8F0D2C2D260F0A
:103820004F2D50E0FA01EE0FFF1F1F01240E351E31
:10383000D101A00FB11FAA0FBB1FAA0FBB1FA55E0E
:10384000B24FFC901196EC9011971296DC90129763
:103850001396CC9090E0AC01440F551F840F951F38
:10386000DC01A00FB11FAA0FBB1FAA0FBB1FA55ED3
:10387000B24FBC901196AC90119712969C901297F3
:1038800013968C9070E0AB85BC85AA0FBB1F4B854F
:103890005C85A40FB51FAD01460F571F440F551F80
:1038A000440F551F455E524FFA017080618052806F
:1038B000438030E0A20FB31FAA0FBB1FAA0FBB1F8C
:1038C000A55EB24FFC91FB8311964C9111974C83EE
:1038D00012965C9112975D831396EC91EE83F10141
:1038E000E60FF71FEE0FFF1FEE0FFF1FE55EF24F13
:1038F000308021804281498353815A83FC01E20F49
:10390000F31FEE0FFF1FEE0FFF1FE55EF24F8081EA
:103910008F83918198872281298733813A872B2D44
:103920003A2D492D582D6B2D7A2D892D982D0F94D8
:10393000B371811197C02F2D3E2D4D2D5C2D6F2D14
:103940007E2D8D2D9C2D0F94B371811190C02B81F4
:103950003C814D815E816B817C818D819E810F9444
:10396000B371811189C0272D362D452D542D672D1A
:10397000762D852D942D0F94B371811182C02F81E6
:10398000388549855A856F81788589859A850F9410
:10399000B37181117BC0232D322D49815A81632D52
:1039A000722D89819A810F94B371811174C02F2D6A
:1039B0003E2D4D2D5C2D6F2D7E2D8D2D9C2D0F942C
:1039C000C16E2B2D3A2D492D582D0F94C06E4B01F1
:1039D0005C01272D362D452D542D672D762D852DF7
:1039E000942D0F94C16E2B813C814D815E810F948B
:1039F000C06E6B017C01232D322D49815A81632DCC
:103A0000722D89819A810F94C16E2F8138854985E5
:103A10005A850F94C06E2B013C01A7019601C50188
:103A2000B4010F94C16EA30192010F94C16E20E006
:103A300030E040E450E40F94BB6F2B853C85220FAF
:103A4000331FEB85FC85E20FF31FE00FF11FEE0F34
:103A5000FF1FEE0FFF1FE55EF24F608371838283CD
:103A60009383BECEB12CA12C912C812C64CFFB2C46
:103A7000EA2CD92CC82C6BCF1B821C821D821E8283
:103A800072CF7B806C805D804E8079CF1F821886DC
:103A900019861A8680CF3F802884498549835A85B4
:103AA0005A8385CF0F931F93CF93DF9310E001C00C
:103AB0001F5F123028F580E08230D0F7D1E0D80FB8
:103AC000C1E00C2F011BC81B21E041E06C2F802FAF
:103AD0000E94B51B21E04FEF6C2FC1E0C10F8C2F6E
:103AE0000E94B51B2FEF41E06D2F802F0E94B51B68
:103AF0002FEF4FEF6D2F8C2F0E94B51B8D2FDCCF3A
:103B0000DF91CF911F910F91089582B1846082B9A6
:103B1000089582B18B7F82B908958BB18F778BB96D
:103B200081B38B7F81BB80910801817080930601F6
:103B30000E94891D089583B38E7F83BB84B3816007
:103B400084BB0895FC0180818F3FE1F090E0FC018F
:103B5000EE0FFF1FE80FF91FE253FB4F81819281A7
:103B6000880F991F880F991F880F991FB0E0A0E058
:103B7000689413F8B595A795979587951694D1F7FE
:103B80000296089590E080E008950F931F93FC0142
:103B90004081483108F03EC0518128E830E0251BC3
:103BA000310957FD3395220F331F220F331F621740
:103BB00073079CF5C9010297092E000CAA0BBB0BD9
:103BC000880F991FAA1FBB1F880F991FAA1FBB1F11
:103BD0008C019D01000F111F221F331F000F111FA9
:103BE000221F331FB5FD2AC0689412F8359527951A
:103BF000179507951694D1F75FB7F894842F90E046
:103C0000FC01EE0FFF1FE80FF91FE253FB4F128379
:103C100001835FBF1F910F910895228188E592E093
:103C2000821B910927FD9395880F991F880F991F73
:103C3000681779070CF4CB010297BECF095F1F4FBD
:103C40002F4F3F4FD1CFAC0190E09C30B8F49A0198
:103C5000220F331F240F351F220F331F220F331F54
:103C6000290F311DF901EE0FFF1FE20FF31FE25381
:103C7000FB4F8081882324F09F5FE7CF80E0089589
:103C800081E00895089588E198E20FB6F894A89528
:103C9000809360000FBE9093600008950895009790
:103CA00089F41092900022E02093910010929500E8
:103CB0001092940028B3226028BBE1E7F0E0208155
:103CC00022602083019709F008951092A00082E0FD
:103CD0008093A1001092A5001092A40089BB80934C
:103CE0007200F2CFE9E4F4E080819181891B8F7743
:103CF0000895E9E4F4E0808181830895E9E4F4E043
:103D000080819181981761F0E92FF0E0E75BFB4F2C
:103D1000228130E09F5F9F7790934A04C901089504
:103D20002FEF3FEFFBCF9B01AC01211581EE380750
:103D30004105510541F1E0ECF0E0108280818260A4
:103D4000808360E079E08DE390E00F943D6ECA01DE
:103D5000B901615071098109910922E030E040E028
:103D600050E00F943D6E3093C5002093C400E1EC09
:103D7000F0E08081806180838081886080838081A1
:103D80008068808308951092C00060E874E88EE136
:103D900090E00F943D6ECA01B9016150710981092B
:103DA000910922E030E040E050E00F943D6EDBCF1F
:103DB00084B1806284B985B18F7D85B90895CF9330
:103DC000DF93EC01262F4CAD6BAD04960E94BCCF67
:103DD0009BAD890F8BAF81E090E0DF91CF9108958B
:103DE000EF92FF920F931F93CF93DF93EC018B0120
:103DF0007A018A859B858617970731F0888199819A
:103E00000E9455CF1B870A87B701888199810E943C
:103E100068CF2E813F81820F932F911D9F838E83C8
:103E200090E080E0DF91CF911F910F91FF90EF9094
:103E30000895EF92FF920F931F93CF93DF93EC01BE
:103E40008B017A018A859B858617970731F08881D7
:103E500099810E9455CF1B870A878885998501968D
:103E600079F00E811F81B701888199810E9468CF06
:103E7000800F912F911D2885398528173907C8F0A3
:103E80004C816A818E81680F9701888199810E9497
:103E900095CF2E813F81820F932F911D9F838E831B
:103EA00090E080E0DF91CF911F910F91FF90EF9014
:103EB000089581E090E0F6CF0F931F93CF93DF93A7
:103EC00000D000D01F921F92CDB7DEB78A01660FD7
:103ED000771F660F771F660F771F680F791F48E0FF
:103EE00050E0CE0101960F940067B801CE01019613
:103EF0000E946C1928960FB6F894DEBF0FBECDBF96
:103F0000DF91CF911F910F910895EF92FF920F9340
:103F10001F93CF93DF9300D000D000D01F92CDB776
:103F2000DEB71D821E821F8218868A019B0168945B
:103F300016F836952795179507951694D1F71A8395
:103F40000983242F20682B832C831A8619864F3FE0
:103F5000510561057105A9F1A0F17C01FC016281A7
:103F600073818E01075F1F4F9E012F5F3F4F4CE50E
:103F70005FE1808191810F94D86299232CF1F70140
:103F80006081718189859A85880F991F880F991F93
:103F9000880F991F680F791F48E050E0CE01019605
:103FA0000F9400678F8198852A960FB6F894DEBF2C
:103FB0000FBECDBFDF91CF911F910F91FF90EF907A
:103FC000089590E080E0F0CF90E080E0EDCFAF92F8
:103FD000BF92DF92EF92FF920F931F93CF93DF93E5
:103FE0001F921F92CDB7DEB75B01D22E642F752FC3
:103FF00019821A82422F532F0E94851FBC01892BE0
:10400000C1F06A157B0519F09D2D90689983AE016A
:104010004F5F5F4FC801F70119950F900F90DF9127
:10402000CF911F910F91FF90EF90DF90BF90AF90D5
:104030000895D982B501E5CFAF92BF92CF92DF92BA
:10404000EF92FF920F931F93CF93DF93CDB7DEB71D
:104050002C970FB6F894DEBF0FBECDBF6C01E42FD6
:10406000952FA9019801D6011496AD90BC9080912E
:10407000BF07882389F1DA82C9826B837C83ED8351
:104080009E8318861F82FA86E9861C861B860F2E61
:10409000F9E1EF2EFFE1FF2EF02D8E010F5F1F4F94
:1040A000B5018BEB97E00E94E71FB501C6010E94A6
:1040B00055CF8F8198852C960FB6F894DEBF0FBE32
:1040C000CDBFDF91CF911F910F91FF90EF90DF90C7
:1040D000CF90BF90AF90089520E33FE04E2FC601F0
:1040E0000E946DCF90E080E0E6CF2F923F924F92FA
:1040F0005F926F927F928F929F92AF92BF92CF9278
:10410000DF92EF92FF920F931F93CF93DF9300D034
:104110001F92CDB7DEB73C014B016A01190158016E
:10412000270119821A821B821C82AE014F5F5F4FEA
:10413000B101C6010F94D25D6C0129813A814B8196
:104140005C81211531054105510539F07201850168
:10415000B401C3010E94E71FE4CF0F900F900F90AE
:104160000F90DF91CF911F910F91FF90EF90DF9013
:10417000CF90BF90AF909F908F907F906F905F9007
:104180004F903F902F900895AF92BF92CF92DF92C1
:10419000EF92FF920F931F93CF93DF93CDB7DEB7CC
:1041A0002C970FB6F894DEBF0FBECDBFDC0114967E
:1041B000CD90DC902091BF07222391F1AB015C01EF
:1041C000FE0133968AE0DF011D928A95E9F7BA82F3
:1041D000A9820F2EF0EFEF2EFEE1FF2EF02D8E01C3
:1041E0000F5F1F4F24ED31E0B6018BEB97E00E948B
:1041F0007520B601C5010E9455CF8F8198852C96F8
:104200000FB6F894DEBF0FBECDBFDF91CF911F91E7
:104210000F91FF90EF90DF90CF90BF90AF900895F7
:104220008FEF9FEFECCFAF92BF92CF92DF92EF92E2
:10423000FF920F931F93CF93DF93CDB7DEB72C97E9
:104240000FB6F894DEBF0FBECDBFDC011496CD9043
:10425000DC902091BF07222391F1AB015C01FE01AC
:1042600033968AE0DF011D928A95E9F7BA82A98226
:104270000F2EF0EFEF2EFEE1FF2EF02D8E010F5FDF
:104280001F4F24EB30E0B6018BEB97E00E947520C6
:10429000B601C5010E9455CF8F8198852C960FB627
:1042A000F894DEBF0FBECDBFDF91CF911F910F916C
:1042B000FF90EF90DF90CF90BF90AF9008958FEF79
:1042C0009FEFECCFAF92BF92CF92DF92EF92FF922F
:1042D0000F931F93CF93DF93CDB7DEB72C970FB615
:1042E000F894DEBF0FBECDBF6C01F901DC0114965E
:1042F000AD90BC908091BF078823A1F1DA82C9827A
:104300006B837C834D835E8318861F821A8709879F
:104310001C861B860F2EF9E1EF2EFFE1FF2EF02DFC
:104320008E010F5F1F4F24ED31E0AF01B5018BEB24
:1043300097E00E947520B501C6010E9455CF8F817C
:1043400098852C960FB6F894DEBF0FBECDBFDF91D7
:10435000CF911F910F91FF90EF90DF90CF90BF9082
:10436000AF90089520E33FE0C6010E946DCF90E03A
:1043700080E0E7CFAF92BF92CF92DF92EF92FF92B1
:104380000F931F93CF93DF93CDB7DEB72C970FB664
:10439000F894DEBF0FBECDBF6C01F901DC011496AD
:1043A000AD90BC908091BF078823A1F1DA82C982C9
:1043B0006B837C834D835E8318861F821A870987EF
:1043C0001C861B860F2EF9E1EF2EFFE1FF2EF02D4C
:1043D0008E010F5F1F4F24EB30E0AF01B5018BEB77
:1043E00097E00E947520B501C6010E9455CF8F81CC
:1043F00098852C960FB6F894DEBF0FBECDBFDF9127
:10440000CF911F910F91FF90EF90DF90CF90BF90D1
:10441000AF90089520E33FE0C6010E946DCF90E089
:1044200080E0E7CFCF93FC0120812B33C1F02091B6
:104430008607243018F080E0CF910895C62FBC0184
:1044400080910406F0E68F9FC00111248B5F994F85
:104450000F941A728C2F0E940E1A81E0EDCF80E02B
:10446000EBCFE0918807F0918907309719F08081B0
:10447000811104C080E00F942F58089560E0CF01AF
:104480000F94AE5708950F931F93CF938091DF0C35
:104490009091E00C009719F18C01F801C081CC23B8
:1044A000B1F0C032A1F0C53429F0C53619F00F5F64
:1044B0001F4FF3CFF801108270E060E08091DF0CB5
:1044C0009091E00C0F946863F801C08304C070E021
:1044D00060E00F946863CF911F910F91089560E0A1
:1044E00070E0CB01F8CF8F929F92AF92BF92CF92A4
:1044F000DF92EF92FF920F931F93CF93DF93D0E061
:104500003DC0218120532A3008F077C07EC09181C0
:1045100020ED290F2A3008F478C09E3219F0F0E01F
:10452000E0E073C0928190539A3008F46EC0F0E0DE
:10453000E0E06BC01092E00C1092DF0C01C080E054
:10454000882339F02091DF0C3091E00C232B09F403
:1045500061C0811161C0000F111F000F111FF80110
:10456000E75CFD4F80819181A281B3810D551C4E86
:10457000F80180839183A283B383DF5FD33008F097
:10458000BCC00D2F10E087E18D0F8A31C0F6282FB7
:1045900030E04091DB0C5091DC0C6091DD0C7091AF
:1045A000DE0C04C076956795579547958A95D2F7A6
:1045B00081E06A017B0191E0C922DD24EE24FF2421
:1045C00040FF80E0CD28CE28CF2809F4B9CF2F5363
:1045D000334FD901EC91EE2309F4ACCF2091BF0CFD
:1045E0003091C00CE20FF32FF11D908120ED290FC7
:1045F0002A3058F09E3209F484CF9D3209F487CFD7
:104600009B3209F484CFF0E0E0E0F093E00CE0931B
:10461000DF0C96CF80E09DCF8091DF0C9091E00C75
:10462000009709F450C07C01F701C081CC23C9F088
:10463000C032B9F0C53431F0C53621F0FFEFEF1AC2
:10464000FF0AF2CFD7011C9270E060E08091DF0C8E
:104650009091E00C0F9468634B015C01F701C083FB
:1046600006C070E060E00F9468634B015C01D330DA
:1046700071F180918A0790E0B0E0A0E0002E04C0C4
:10468000B695A795979587950A94D2F780FF25C090
:10469000F801EE0FFF1FEE0FFF1FE75CFD4F60817B
:1046A000718182819381A50194010F94C16E000FE5
:1046B000111F000F111FF801ED55FC4E608371832F
:1046C000828393835ACF812C912C5401D0CF809137
:1046D0008A0785FDDDCF84FFCCCFF801EE0FFF1FE9
:1046E000EE0FFF1FED51F34F208131814281538145
:1046F000C501B4010F94C06EDACF8091DB0C9091AC
:10470000DC0CA091DD0CB091DE0C689413F8B6952A
:10471000A795979587951694D1F721E0AC01BD0137
:10472000417055276627772780FF20E0452B462BD1
:10473000472BE1F0E091C50CEE23C9F18091BF0C4D
:104740009091C00CE80FF92FF11D808190ED980F2A
:104750009A3040F08E32A9F08D32C1F08B32B1F038
:10476000F0E0E0E0F093E00CE093DF0C222321F195
:104770008091DF0C9091E00C892B09F48BC081E0D3
:104780001CC0918190539A3038F7ECCF818190ED25
:10479000980F9A3038F38E3219F0F0E0E0E0E2CF73
:1047A000828180538A30F0F2F0E0E0E0DBCF1092BB
:1047B000E00C1092DF0CDACF80E081116DC08091A7
:1047C000450290914602A0914702B0914802809321
:1047D000AF139093B013A093B113B093B213809121
:1047E000DB0C9091DC0CA091DD0CB091DE0C689498
:1047F00014F8B695A795979587951694D1F721E06B
:10480000AC01BD01417055276627772780FF20E066
:10481000452B462B472B01F1E091C60CEE2309F402
:10482000A5C08091BF0C9091C00CE80FF92FF11D2D
:10483000808190ED980F9A3058F08E3209F47DC047
:104840008D3209F480C08B3209F47DC0F0E0E0E0E5
:10485000F093E00CE093DF0C222309F4A2C08091D6
:10486000DF0C9091E00C009709F4B9C009F495C0F1
:104870008C01F801C081CC2309F48AC0C03209F44C
:1048800087C0C53409F477C0C53609F474C00F5F1A
:104890001F4FEFCF80E091CF8091DF0C9091E00C23
:1048A000009709F446C08C01D801CC91CC23B1F01B
:1048B000C032A1F0C53429F0C53619F00F5F1F4F83
:1048C000F3CFF801108270E060E08091DF0C9091EE
:1048D000E00C0F946863D801CC9304C070E060E0F2
:1048E0000F94686320918A0725FD10C024FD18C02D
:1048F000022F10E030E020E0689412F836952795FA
:10490000179507951694D1F700FF0AC0209145022C
:104910003091460240914702509148020F94C16E77
:104920006093AF137093B0138093B1139093B2134D
:1049300056CF60E070E0CB01D5CF918190539A3093
:1049400008F07ECF85CF818190ED980F9A3008F4E2
:104950007FCF8E3219F0F0E0E0E07ACF8281805391
:104960008A3008F475CFF0E0E0E072CF1092E00CEE
:104970001092DF0C71CFD8011C9270E060E0809142
:10498000DF0C9091E00C0F946863F801C0830CC0B9
:1049900070E060E00F94686307C060E070E0CB01F6
:1049A00003C060E070E0CB0120E030E0A9010F948B
:1049B00021711816BCF58091DF0C9091E00C0097E6
:1049C000F1F18C01D801CC91CC23D1F0C032C1F0EF
:1049D000C53449F0C53639F00F5F1F4FF3CF60E0A3
:1049E00070E0CB01E1CFF801108270E060E08091CF
:1049F000DF0C9091E00C0F946863D801CC9304C055
:104A000070E060E00F94686320E030E040E752E43B
:104A10000F94BB6F60933502709336028093370218
:104A200090933802DF91CF911F910F91FF90EF90FB
:104A3000DF90CF90BF90AF909F908F90089560E0EF
:104A400070E0CB01E1CF8091DF0C9091E00C0097FA
:104A500041F04AE050E070E060E00F94C6649923B2
:104A600014F18091DF0C9091E00C009761F04AE026
:104A700050E070E060E00F94C6646F3F71058105FF
:104A8000910509F094F48091DF0C9091E00C00976F
:104A900041F04AE050E070E060E00F94C664862F79
:104AA000089560E0FCCF80E008958FEF0895809135
:104AB000DB0C9091DC0CA091DD0CB091DE0C072E8C
:104AC0007DE0B695A795979587957A95D1F7702D46
:104AD00021E0AC01BD01417055276627772780FF93
:104AE00020E0452B462B472BE9F0E091CE0CEE233E
:104AF00009F445C08091BF0C9091C00CE80FF92FCC
:104B0000F11D808190ED980F9A3040F08E3209F1BE
:104B10008D3221F18B3211F1F0E0E0E0F093E00C06
:104B2000E093DF0C2223A1F08091DF0C9091E00C48
:104B3000009771F04AE050E070E060E00F94C664C6
:104B400060939C0570939D0580939E0590939F05AF
:104B50000895918190539A30D8F6E0CF818190EDFD
:104B6000980F9A30D8F28E3219F0F0E0E0E0D6CF0C
:104B7000828180538A3090F2F0E0E0E0CFCF109253
:104B8000E00C1092DF0CCECFCF92DF92EF92FF922B
:104B9000CF93E62F9FEB980F9A3108F060C0292F32
:104BA00030E04091DB0C5091DC0C6091DD0C709199
:104BB000DE0C04C076956795579547959A95D2F780
:104BC000C1E06A017B0191E0C922DD24EE24FF24CB
:104BD00040FFC0E0CD28CE28CF2809F441C02F5394
:104BE000334FD9019C919923A9F12091BF0C3091A9
:104BF000C00CD901A90FB11D9C9120ED290F2A30BD
:104C000040F09E3259F09D3281F09B3271F0B0E05D
:104C1000A0E0B093E00CA093DF0C22C011962C9181
:104C2000119720532A3078F7F4CF11969C91119761
:104C300020ED290F2A3068F39E3219F0B0E0A0E091
:104C4000E8CF12969C91129790539A3010F3B0E0EF
:104C5000A0E0DFCF1092E00C1092DF0C01C0C0E0AA
:104C6000CC23D1F12091DF0C3091E00C21153105DE
:104C700099F1C901009741F04AE050E070E060E02E
:104C80000F94C664992324F18091DF0C9091E00C7D
:104C9000009761F04AE050E070E060E00F94C66475
:104CA0006F3F71058105910509F0A4F48091DF0C37
:104CB0009091E00C009751F04AE050E070E060E025
:104CC0000F94C664611170C0C0E06EC060E0FACF9E
:104CD00060E0F8CF6FEFF6CF4FEB480F4A3108F0A6
:104CE0005FC0242F30E08091DB0C9091DC0CA09110
:104CF000DD0CB091DE0C04C0B695A795979587950D
:104D00004A95D2F7C1E0AC01BD0141705527662735
:104D1000772780FFC0E0452B462B472B09F441C085
:104D20002F53334FD9012C912223A9F18091BF0C2D
:104D30009091C00CDC01A20FB11D8C9190ED980FE9
:104D40009A3040F08E3259F08D3281F08B3271F012
:104D5000B0E0A0E0B093E00CA093DF0C22C011966D
:104D60009C91119790539A3078F7F4CF11968C91CB
:104D7000119790ED980F9A3068F38E3219F0B0E0E9
:104D8000A0E0E8CF12968C91129780538A3010F3EE
:104D9000B0E0A0E0DFCF1092E00C1092DF0C01C079
:104DA000C0E0C11101C0CE2F8C2FCF91FF90EF90AA
:104DB000DF90CF900895CF92DF92EF92FF92CF9342
:104DC0008091DB0C9091DC0CA091DD0CB091DE0C9D
:104DD000072E72E1B695A795979587957A95D1F7A5
:104DE000702D21E0AC01BD01417055276627772762
:104DF00080FF20E0452B462B472B01F1E091D30C9F
:104E0000EE2309F48AC08091BF0C9091C00CE80F8A
:104E1000F92FF11D808190ED980F9A3058F08E3265
:104E200009F462C08D3209F465C08B3209F462C0A6
:104E3000F0E0E0E0F093E00CE093DF0C222309F4D3
:104E40004DC08091DF0C9091E00C009709F446C0B2
:104E500049F04AE050E070E060E00F94C6649923A6
:104E60000CF462C08091DF0C9091E00C009769F027
:104E70004AE050E070E060E00F94C6646F3F710557
:104E80008105910511F00CF051C08091DF0C9091DB
:104E9000E00C009709F446C04AE050E070E060E0A2
:104EA0000F94C664C62FCD3308F0CCE3C093AF0D8A
:104EB0000E9498C06B017C012C2F30E0A8EEB3E07B
:104EC0000F946F6EC60ED71EE81EF91EC092AB0D72
:104ED000D092AC0DE092AD0DF092AE0DCF91FF905F
:104EE000EF90DF90CF900895918190539A3008F021
:104EF00099CFA0CF818190ED980F9A3008F49ACF86
:104F00008E3219F0F0E0E0E095CF828180538A3054
:104F100008F490CFF0E0E0E08DCF1092E00C10921A
:104F2000DF0C8CCF60E0BECFC0E0BDCFCFEFBBCFFA
:104F30000F931F93CF938091DB0C9091DC0CA09189
:104F4000DD0CB091DE0C072E72E1B695A795979512
:104F500087957A95D1F7702D21E0AC01BD014170A4
:104F600055276627772780FF20E0452B462B472BC8
:104F7000E1F0E091D30CEE23A1F18091BF0C909170
:104F8000C00CE80FF92FF11D808190ED980F9A3039
:104F900040F08E3281F08D3299F08B3289F0F0E062
:104FA000E0E0F093E00CE093DF0C21111FC0CF9103
:104FB0001F910F910895918190539A3060F7F1CF2E
:104FC000818190ED980F9A3060F38E3219F0F0E005
:104FD000E0E0E7CF828180538A3018F3F0E0E0E030
:104FE000E0CF1092E00C1092DF0CDFCF0E9498C04F
:104FF0006093C80D7093C90D8093CA0D9093CB0D2B
:105000008091DF0C9091E00C009781F18C01F80108
:10501000C081CC23B1F0C032A1F0C53429F0C5362F
:1050200019F00F5F1F4FF3CFF801108270E060E0BE
:105030008091DF0C9091E00C0F946863F801C083BD
:1050400004C070E060E00F94686320E030E04AE75D
:1050500054E40F943D680F94347060934B05709343
:105060004C0580934D0590934E05A1CF60E070E014
:10507000CB01EBCF8091DB0C84FD09C08091DD0C6E
:1050800088232CF08091DE0C837009F406C1809196
:10509000DB0C9091DC0CA091DD0CB091DE0C072EA6
:1050A00077E1B695A795979587957A95D1F7702D65
:1050B00021E0AC01BD01417055276627772780FFAD
:1050C00020E0452B462B472B01F1E091D80CEE2335
:1050D00009F404C18091BF0C9091C00CE80FF92F26
:1050E000F11D808190ED980F9A3058F08E3209F4BE
:1050F000DCC08D3209F4DFC08B3209F4DCC0F0E093
:10510000E0E0F093E00CE093DF0C222319F08BB188
:105110008F778BB98091DB0C9091DC0CA091DD0C2A
:10512000B091DE0C8B2F9927AA27BB2721E0AC0179
:10513000BD01417055276627772780FF20E0452B6A
:10514000462B472B01F1E091D90CEE2309F4E4C082
:105150008091BF0C9091C00CE80FF92FF11D808158
:1051600090ED980F9A3058F08E3209F4BCC08D3211
:1051700009F4BFC08B3209F4BCC0F0E0E0E0F0936A
:10518000E00CE093DF0C222319F081B38B7F81BB0D
:105190008091DB0C9091DC0CA091DD0CB091DE0CC9
:1051A000072E79E1B695A795979587957A95D1F7CA
:1051B000702D21E0AC01BD0141705527662777278E
:1051C00080FF20E0452B462B472B01F1E091DA0CC4
:1051D000EE2309F4BFC08091BF0C9091C00CE80F82
:1051E000F92FF11D808190ED980F9A3058F08E3292
:1051F00009F497C08D3209F49AC08B3209F497C034
:10520000F0E0E0E0F093E00CE093DF0C222329F0E3
:10521000809108018170809306018091DB0C909150
:10522000DC0CA091DD0CB091DE0C689413F8B695FF
:10523000A795979587951694D1F721E0AC01BD010C
:10524000417055276627772780FF20E0452B462BA6
:10525000472B01F1E091C50CEE2309F499C0809130
:10526000BF0C9091C00CE80FF92FF11D808190EDDB
:10527000980F9A3058F08E3209F471C08D3209F4CB
:1052800074C08B3209F471C0F0E0E0E0F093E00C00
:10529000E093DF0C211181C0089560E08BE799E075
:1052A0000F947E560E948D1D0895918190539A30DF
:1052B00008F01FCF26CF818190ED980F9A3008F427
:1052C00020CF8E3219F0F0E0E0E01BCF82818053D6
:1052D0008A3008F416CFF0E0E0E013CF1092E00C33
:1052E0001092DF0C12CF918190539A3008F03FCF8B
:1052F00046CF818190ED980F9A3008F440CF8E32DE
:1053000019F0F0E0E0E03BCF828180538A3008F46E
:1053100036CFF0E0E0E033CF1092E00C1092DF0CDB
:1053200032CF918190539A3008F064CF6BCF818156
:1053300090ED980F9A3008F465CF8E3219F0F0E0B6
:10534000E0E060CF828180538A3008F45BCFF0E0E8
:10535000E0E058CF1092E00C1092DF0C57CF918113
:1053600090539A3008F08ACF91CF818190ED980FB9
:105370009A3008F48BCF8E3219F0F0E0E0E086CF5F
:10538000828180538A3008F481CFF0E0E0E07ECF64
:105390001092E00C1092DF0C7DCF0E94891D7CCF13
:1053A000FF920F931F93CF93DF9380918A0C83FF1B
:1053B00006C0DF91CF911F910F91FF9008958091CA
:1053C000DB0C9091DC0CA091DD0CB091DE0C892FF0
:1053D0009A2FAB2FBB2721E0AC01BD0141705527AF
:1053E0006627772780FF20E0452B462B472BE9F0E7
:1053F000E091C90CEE2309F44CC08091BF0C909150
:10540000C00CE80FF92FF11D808190ED980F9A30B4
:1054100040F08E3241F18D3259F18B3249F1F0E09A
:10542000E0E0F093E00CE093DF0C2223B9F18091EF
:10543000DF0C9091E00C892B09F461C00E942325B8
:1054400090E01816190614F481E090E0FC01EE0FCC
:10545000FF1FE80FF91FEE0FFF1FE15FF24F028100
:105460001381C1E01EC0918190539A30A0F6D9CF2C
:10547000818190ED980F9A30A0F28E3219F0F0E011
:10548000E0E0CFCF828180538A3058F2F0E0E0E054
:10549000C8CF1092E00C1092DF0CC7CFC0E010E034
:1054A00000E0CC2381F1F12CCC2309F482CF063427
:1054B000110514F006E410E0CCECDDE01987088754
:1054C0000E9407CD60E081E00E940AE2688579854C
:1054D000072E000C880B990B0F94DE672C813D8101
:1054E0004E815F810F942171181694F58CEB9EE02C
:1054F00060E00F947E568F2D0E945CDE5ACFC0E094
:1055000010E000E0CECF83E50E94A119F82E882399
:1055100069F08091DF0C9091E00C892B39F00E94AA
:1055200043220F942D708B01C1E0BECF82E50E9413
:10553000A119F82E882341F08091DF0C9091E00CA6
:10554000892B21F0FC2EEBCFC82FAECFFC2EACCF99
:105550008DEA9EE0CDCF0F931F93CF93DF93809181
:105560008A0C83FF05C0DF91CF911F910F910895A1
:105570008091DB0C9091DC0CA091DD0CB091DE0CE5
:10558000892F9A2FAB2FBB2721E0AC01BD014170C1
:1055900055276627772780FF20E0452B462B472B92
:1055A00001F1E091C90CEE2309F47AC08091BF0C9F
:1055B0009091C00CE80FF92FF11D808190ED980FAC
:1055C0009A3058F08E3209F452C08D3209F455C029
:1055D0008B3209F452C0F0E0E0E0F093E00CE0938D
:1055E000DF0C222309F467C08091DF0C9091E00C5E
:1055F000009709F478C049F04AE050E070E060E0BC
:105600000F94C66499230CF452C08091DF0C9091E2
:10561000E00C009769F04AE050E070E060E00F9421
:10562000C6646F3F71058105910511F00CF041C012
:105630008091DF0C9091E00C0097B9F14AE050E0C6
:1056400070E060E00F94C66470E01616170614F45C
:1056500061E070E0FB01EE0FFF1FE60FF71FEE0F9A
:10566000FF1FE15FF24F02811381C1E027C09181EA
:1056700090539A3008F0A9CFB0CF818190ED980F68
:105680009A3008F4AACF8E3219F0F0E0E0E0A5CF0E
:10569000828180538A3008F4A0CFF0E0E0E09DCF13
:1056A0001092E00C1092DF0C9CCF60E0CDCF60E058
:1056B000CBCF6FEFC9CFC0E010E000E0CC23B9F052
:1056C000CC2309F450CF0634110514F006E410E0A1
:1056D0001093D50D0093D40D0E9407CD61E080E0BA
:1056E0000E940AE240CFC0E010E000E0E7CF83E58F
:1056F0000E94A119D82F882369F08091DF0C909126
:10570000E00C892BE9F20E9443220F942D708B014B
:10571000CD2FD6CFC82FD4CF8091DB0C9091DC0C4D
:10572000A091DD0CB091DE0C072E7FE0B695A79519
:10573000979587957A95D1F7702D21E0AC01BD0141
:10574000417055276627772780FF20E0452B462BA1
:10575000472B01F1E091D00CEE2309F468C0809151
:10576000BF0C9091C00CE80FF92FF11D808190EDD6
:10577000980F9A3058F08E3209F440C08D3209F4F7
:1057800043C08B3209F440C0F0E0E0E0F093E00C5D
:10579000E093DF0C222309F455C08091DF0C909137
:1057A000E00C009709F454C049F04AE050E070E082
:1057B00060E00F94C66499230CF440C08091DF0C24
:1057C0009091E00C009761F04AE050E070E060E0FA
:1057D0000F94C6646F3F71058105910509F084F54A
:1057E0008091DF0C9091E00C009731F14AE050E09D
:1057F00070E060E00F94C664862F25C091819053BD
:105800009A3008F0BBCFC2CF818190ED980F9A30CB
:1058100008F4BCCF8E3219F0F0E0E0E0B7CF82811F
:1058200080538A3008F4B2CFF0E0E0E0AFCF1092BE
:10583000E00C1092DF0CAECF60E0DECF80E003C062
:105840008FEF01C080E070E060E00E94BAEC089544
:1058500080E0F9CF0F931F93CF938091DB0C909151
:10586000DC0CA091DD0CB091DE0C072E7FE0B6952C
:10587000A795979587957A95D1F7702D21E0AC0182
:10588000BD01417055276627772780FF20E0452B13
:10589000462B472B01F1E091D00CEE2309F468C0B0
:1058A0008091BF0C9091C00CE80FF92FF11D808101
:1058B00090ED980F9A3058F08E3209F440C08D3236
:1058C00009F443C08B3209F440C0F0E0E0E0F0930B
:1058D000E00CE093DF0C222309F455C08091DF0C2B
:1058E0009091E00C009709F455C049F04AE050E06F
:1058F00070E060E00F94C66499230CF440C080917E
:10590000DF0C9091E00C009761F04AE050E070E00D
:1059100060E00F94C6646F3F71058105910509F041
:1059200084F58091DF0C9091E00C009731F14AE012
:1059300050E070E060E00F94C664C62F25C09181EE
:1059400090539A3008F0BBCFC2CF818190ED980F71
:105950009A3008F4BCCF8E3219F0F0E0E0E0B7CF17
:10596000828180538A3008F4B2CFF0E0E0E0AFCF1C
:105970001092E00C1092DF0CAECF60E0DECFC0E002
:1059800003C0CFEF01C0C0E0CC2331F0CF911F9115
:105990000F910895C0E0F8CF4091DB0C5091DC0CE2
:1059A0006091DD0C7091DE0C81E08A019B01017039
:1059B00011272227332740FF80E0012B022B032BE6
:1059C00001F1E091C10CEE2309F492C02091BF0CCB
:1059D0003091C00CE20FF32FF11D908120ED290FC3
:1059E0002A3058F09E3209F46AC09D3209F46DC025
:1059F0009B3209F46AC0F0E0E0E0F093E00CE09341
:105A0000DF0C882309F479C00091A70D10E0809184
:105A1000DB0C9091DC0CA091DD0CB091DE0C892F99
:105A20009A2FAB2FBB2721E0AC01BD014170552758
:105A30006627772780FF20E0452B462B472B01F177
:105A4000E091C90CEE2309F474C08091BF0C9091D1
:105A5000C00CE80FF92FF11D808190ED980F9A305E
:105A600058F08E3209F44CC08D3209F44FC08B329D
:105A700009F44CC0F0E0E0E0F093E00CE093DF0CC0
:105A8000222309F45BC08091DF0C9091E00C892BFC
:105A900009F45CC00E94232590E01816190614F43E
:105AA00081E090E0FC01EE0FFF1FE80FF91FEE0F01
:105AB000FF1FE15FF24F0481158181E040C0218129
:105AC00020532A3008F091CF98CF918120ED290FF3
:105AD0002A3008F492CF9E3219F0F0E0E0E08DCF4A
